:020000040800F2
:10000000900400209D010008CB1100086310000837
:10001000C9110008A90200080D170008000000001F
:10002000000000000000000000000000D9110008DE
:100030009D03000800000000CD110008DB1100083E
:10004000B7010008B7010008B7010008B7010008B0
:10005000B7010008B7010008B7010008B7010008A0
:10006000B7010008B7010008B7010008B701000890
:10007000B7010008B7010008B7010008B701000880
:10008000B7010008B7010008B7010008B701000870
:10009000B7010008B7010008B7010008B701000860
:1000A000B7010008B7010008B7010008B701000850
:1000B000BD120008B7010008B7010008B701000829
:1000C000B7010008B7010008B7010008B701000830
:1000D000B7010008B7010008B7010008B701000820
:1000E000B7010008B7010008B7010008B701000810
:1000F000B7010008B7010008B7010008B701000800
:10010000B7010008B7010008B7010008B7010008EF
:10011000B7010008B7010008B7010008B7010008DF
:10012000B7010008B7010008B7010008B7010008CF
:10013000B7010008B7010008B7010008B7010008BF
:10014000B7010008B7010008B7010008B7010008AF
:10015000B7010008B7010008B7010008B70100089F
:10016000B7010008B7010008B7010008B70100088F
:10017000B7010008B7010008B7010008000000003F
:10018000B7010008B7010008DFF80CD000F07AF8DA
:10019000004800474D17000890040020064880479B
:1001A00006480047FEE7FEE7FEE7FEE7FEE7FEE75C
:1001B000FEE7FEE7FEE7FEE7691200088901000896
:1001C0002DE9F05F0546002092469B46884606468C
:1001D000814640241BE0284641464746224600F01F
:1001E00041F853465A46C01A914110D31146184659
:1001F000224600F028F82D1A67EB01084F462246E8
:100200000120002100F01FF817EB00094E41201ECD
:10021000A4F10104DFDC484631462A464346BDE8E6
:10022000F09FD2B201E000F8012B491EFBD27047CB
:100230000022F6E710B513460A4604461946FFF7B2
:10024000F0FF204610BD202A04DB203A00FA02F11C
:10025000002070479140C2F1200320FA03F31943B4
:1002600090407047202A04DB203A21FA02F0002156
:10027000704721FA02F3D040C2F1200291400843B6
:1002800019467047064C074D06E0E06840F0010350
:1002900094E8070098471034AC42F6D3FFF778FF94
:1002A000F417000814180008FEE70160828000219E
:1002B000C0E902110174704710B5344C03460422A2
:1002C0002146FFF7F2FF0822214603F11800FFF74D
:1002D000ECFF1022214603F13000FFF7E6FF202259
:1002E000214603F14800FFF7E0FF4022214603F1D9
:1002F0006000FFF7DAFF264C4FF40052214603F16D
:100300007800FFF7D2FF4FF48042214603F19000BE
:10031000FFF7CBFF4FF40042214603F1A800FFF79F
:10032000C4FF0122214603F1C000FFF7BEFF0222F5
:10033000214603F1D800FFF7B8FF0422214603F15C
:10034000F000FFF7B2FF0822214603F58470FFF7A3
:10035000ACFF104C0122214603F59070FFF7A5FF7A
:100360000222214603F59C70FFF79FFF0A4C0222F0
:10037000214603F5A870FFF798FF2146BDE810401D
:10038000042203F5B470FFF790BF00000010024094
:1003900000080240001C02400000024070470000BC
:1003A000024600204FEA000101EB410302EBC303C8
:1003B0001B7C012B03D10807000E40F00100491CF3
:1003C000C9B21029F0D370472DE9F84FDFF87CB19E
:1003D00000224FF001084FF0030A4FF00F090BF114
:1003E000040E00BF0B6808FA02F42340A3426ED14A
:1003F0004D68022D01D0122D0ED1D50800EB850CD1
:10040000DCF820505607F70E09FA07F6B5430E69D7
:10041000BE402E43CCF82060066855000F790AFADA
:1004200005FC07F0030726EA0C06AF4037430760D8
:100430004E68012E05D0022E03D0112E01D0122EAF
:100440000ED18668CF6826EA0C06AF403743876036
:100450004668A6430C79C4F30014944034434460C6
:10046000C6688C6826EA0C06AC403443C4604C680D
:10047000E40065D5364C256845F480452560246840
:1004800022F0030504F480440094324C2E19D6F86F
:10049000084895072F0F09FA07F5AC432E4DA842DF
:1004A00001D1002524E02D4DA84201D101251FE0F6
:1004B0002B4DA84201D102251AE02A4DA84201D1B4
:1004C000032515E0284DA84202D1042510E037E0AD
:1004D000264DA84201D105250AE0254DA84201D1AB
:1004E000062505E0234DA84201D1072500E0082597
:1004F000BD402543C6F80858DBF800405D464E680D
:100500009C43F60300D51C432C60DEF80040754682
:100510004E689C43B60300D51C432C600B4D083538
:100520002C684E689C43F60200D51C432C60074D96
:100530000C352C684E689C43B60200D51C432C60D9
:10054000521C102AFFF44EAFBDE8F88F003C01406A
:1005500044380240003001400000024000040240E4
:1005600000080240000C024000100240001402404B
:1005700000180240001C02400069084000D0012021
:1005800070470AB1816170470904FBE70148806840
:100590007047000000000020024881680278114482
:1005A00081607047000000200B4810B5016841F4DD
:1005B00000710160016841F480610160016841F4EB
:1005C00080710160032000F071F8002000F006F84F
:1005D00000F024F8002010BD003C024070B50D4D25
:1005E00004464FF47A712878B1FBF0F00A490968A3
:1005F000B1FBF0F000F0E2FA48B9102C07D200226B
:100600002146501E00F032F800206C6070BD0120C1
:1006100070BD0000000000200C0000200B4882B0DC
:10062000016841F480410160006800F4804000905E
:100630000648001F016841F080510160006800F029
:1006400080500090072002B000F030B844380240DB
:10065000002809DB00F01F020121914040098000C1
:1006600000F1E020C0F8001170470000F0B40E4B1C
:100670001B680C46C3F30223C3F10705042D00D900
:100680000425191D072901D2002300E0DB1E0126E5
:1006900006FA05F1491E214099409E40761E1640FB
:1006A0003143F0BC01F033B80CED00E0064900F036
:1006B000070208684FF6FF03184040EA0220034A89
:1006C00010430860704700000CED00E00000FA05E0
:1006D0002DE9F0470E46050065D0DFF81481D8F803
:1006E0000000F7B200F00F00B04207D288F80070A7
:1006F000D8F8000000F00F00B04254D128683D4CFB
:10070000810712D5400703D5206840F4E0502060EF
:100710002878000703D5206840F4604020602068F6
:10072000A96820F0F000084320602878C0072DD089
:10073000304968680839012812D0022813D00328EC
:1007400011D00968890700292DDA216821F00301F9
:1007500001432160FFF71AFF814641F2883A0EE01B
:1007600009688903EFE709688901ECE7FFF70EFFE5
:10077000A0EB0901514502D90320BDE8F0872068AC
:10078000696800F00C00B0EB810FEFD1D8F80010D1
:10079000404601F00F01B14207D90770006800F030
:1007A0000F00B04201D00120E7E72878400705D5C7
:1007B0002068E96820F4E0500843206028780007AA
:1007C00006D52068296920F4604040EAC100206015
:1007D00000F036F82168084AC1F30311515CC840A3
:1007E000064908600020FFF7F9FE0020C5E7000079
:1007F000003C024008380240DC1700080C000020D2
:100800000448054900680968044AC1F38221515C23
:10081000C84070470C00002008380240EC17000860
:100820000448054900680968044AC1F34231515C33
:10083000C84070470C00002008380240EC17000840
:10084000154810B5006810F00C02144813D0411080
:10085000042A0FD0082A0ED10F4C241F22682368C7
:1008600002F03F025B0207D52068C0F38810A0FBAE
:10087000010106E0084610BD2168C1F38811A1FB03
:1008800000010023FFF79CFC2168C1F30141491CD2
:100890004900B0FBF1F010BD083802400024F4001C
:1008A0002DE9F84F050076D02878DFF8F8B2BE4C75
:1008B000C00749D0DBF800105846C1F38101012977
:1008C00008D00068C0F3810002280AD1201D00680A
:1008D000400206D52068800336D568680028E2D03B
:1008E00032E06868B0F5803F10D0B0F5A02F2068E6
:1008F00010D020F480302060206820F48020206018
:100900006868A0B1FFF742FE06460CE0206840F49C
:100910008030F4E740F480202060F7E7FFF736FEF0
:10092000801B642873D820688003F7D50CE0FFF79C
:100930002DFE064605E000BFFFF728FE801B642859
:10094000F0D820688003F7D42878DFF86082800729
:100950004FF000093ED5DBF80010584611F00C0F9F
:1009600009D00068C0F3810002280BD18D48001F18
:100970000068400206D42068800715D5E868012881
:1009800009D111E0E868B8B10120C8F80000FFF70C
:10099000FDFD064605E002E1FFF7F8FD801B022899
:1009A000C0D820688007F7D52068296920F0F800B2
:1009B00040EAC10020600DE0C8F80090FFF7E6FDB6
:1009C000064604E0FFF7E2FD801B02281FD82068DE
:1009D0008007F7D42878000722D5724E74486969D9
:1009E0006C3671B101210160FFF7D0FD074604E0CC
:1009F000FFF7CCFDC01B022809D830688007F7D567
:100A00000EE0C0F80090FFF7C1FD074605E083E067
:100A1000FFF7BCFDC01B02287ED830688007F7D4E2
:100A20002878400768D5DFF87CA100270AF1380A4A
:100A3000DAF80000C0000BD4DAF8001041F0805161
:100A4000CAF80010DAF80000012700F0805000908A
:100A5000584E3068C00510D4306840F48070306063
:100A6000FFF794FD009005E0FFF790FD0099401A14
:100A7000022851D83068C005F6D54A4EA8686836B5
:100A800001280FD00528306810D020F00100306018
:100A9000306820F004003060A868B8B1FFF776FD38
:100AA00000900FE0306840F00100F4E740F00400EF
:100AB0003060F7E7FFF76AFD0099411A41F288308C
:100AC000814264D830688007F4D50EE0FFF75EFD00
:100AD000009007E0FFF75AFD0099411A41F2883073
:100AE000814254D830688007F4D42FB1DAF800106E
:100AF00021F08051CAF80010A869C0B3DBF80010DB
:100B0000C1F3810102294AD00228484607D0C8F81B
:100B10006000FFF73BFD00E039E005463AE047465C
:100B2000C8F86000FFF732FD064604E0FFF72EFD2F
:100B3000801B02282BD820688001F7D4D5E9070153
:100B40000843A96A1C4A490802EB01416A6A41EA62
:100B50008211084395F82C1040EA01611148001FEA
:100B6000016001203866FFF711FD054605E014E03D
:100B7000FFF70CFD401B022809D820688001F7D53B
:100B80000BE000BFFFF702FD401B022802D9032043
:100B9000BDE8F88F20688001F4D40020F8E7012038
:100BA000F6E70000083802400038024000004742E3
:100BB000800E4742007000400000FFFF10B5401E4D
:100BC000B0F1807F01D3012010BD4FF0E0246061BF
:100BD0000F21601700F09BFD0020A061072020611D
:100BE000002010BD7047704770B590F83C20012A76
:100BF00019D0012400F83C4F0222427050F83C3CCE
:100C00005A689D6822F070060A684968324325F0E8
:100C1000800529435A6050F83C2C916044700021B3
:100C20000170084670BD022070BD10B5040003D0ED
:100C300094F83D0010B107E0012010BD002084F8B9
:100C40003C00204600F00CF8022084F83D00211DF5
:100C5000206800F039FB012084F83D00002010BD21
:100C600008B50068B0F1804F12D10A48016841F020
:100C7000010101600068002200F0010000901146AF
:100C80001C20FFF7F3FCBDE808401C20FFF7E0BC88
:100C900008BD00004038024070B5044690F83C00A2
:100CA000012817D0012584F83C50022084F83D002B
:100CB0002068826822F0770222F47F42826008680E
:100CC000502830D00DDC20284DD005DC98B31028FA
:100CD0003BD148E0022070BD302844D0402834D1B8
:100CE00039E0602828D0702806D0B0F5805F2CD07D
:100CF000B0F5005F29D10AE0CB68D1E90121206875
:100D000000F046FB2068816841F0770109E0CB687C
:100D1000D1E90121206800F03BFB2068816841F4A3
:100D20008041816011E0CA684968206800F042FB98
:100D30005021206807E016E0CA684968206800F082
:100D40004AFB6021206800F02DFB84F83D50002014
:100D500084F83C0070BDCA684968206800F02AFB2E
:100D600040212068EFE7226801461046EBE7704714
:100D700070B50446006801694FF00005C943890752
:100D800015D4C168C943890711D4E91E0161012046
:100D90002077206880698007204602D0FFF7E7FFB0
:100DA00004E000F098F8204600F096F825772068D7
:100DB0000169C943490717D4C168C943490713D416
:100DC0006FF004010161022020772068806910F42F
:100DD000407F204602D0FFF7CAFF04E000F07BF816
:100DE000204600F079F8257720680169C943090792
:100DF00016D4C168C943090712D46FF00801016114
:100E0000042020772068C0698007204602D0FFF7C1
:100E1000AEFF04E000F05FF8204600F05DF82577B3
:100E200020680169C943C90617D4C168C943C90606
:100E300013D46FF010010161082020772068C06989
:100E400010F4407F204602D0FFF791FF04E000F04D
:100E500042F8204600F040F8257720680169C94330
:100E6000C90708D1C168C943C90704D1891E0161F6
:100E7000204600F032F820680169C943090609D408
:100E8000C168C943090605D46FF08001016120469D
:100E9000FFF7A8FE20680169C943490609D4C16863
:100EA000C943490605D46FF040010161204600F0B6
:100EB00015F820680169C94389060BD4C168C94384
:100EC000890607D46FF0200101612046BDE870401B
:100ED000FFF789BE70BD704770477047704770B5A7
:100EE000040004D094F83900002510B106E0012078
:100EF00070BD84F83850204600F022F8242084F891
:100F000039002068C16821F40051C160204600F01A
:100F100075FA2068016921F49041016120684169F6
:100F200021F02A0141612068C16841F40051C1608B
:100F3000E563202084F8390084F83A00002070BD71
:100F400010B586B0044614216846FFF771F91349BD
:100F50002068884220D11248016841F010010160E8
:100F6000006800F0100005900D481438016841F049
:100F7000020101600068694600F002000590C0208F
:100F8000009002200190012002900320039007208E
:100F900004900448FFF718FA06B010BD0010014095
:100FA00044380240000402402DE9F843044690F81A
:100FB00039001F4616460D46202850D1A5B19EB1D6
:100FC00094F8380001284AD0012084F838004FF006
:100FD0000008C4F83C80212084F83900FFF7D6FAD5
:100FE000A6848146E68426E00120BDE8F883E08CF3
:100FF000401EE084A0684B46B0F5805F4FF00002D1
:101000004FF080012046009703D000F04DFBE8B977
:101010000DE000F049FBC8B928882168C0F308003A
:101020004860206908B16D1C05E0AD1C03E0216833
:1010300015F8010B4860E08C0028D8D14B460022FF
:1010400040212046009700F02FFB08B10320CCE799
:10105000202084F8390084F838800020C5E7022079
:10106000C3E7FEE72DE9F04186B014216846FFF79B
:10107000DFF83B480024016841F01001016001687D
:1010800001F010010591016841F00401016001685F
:1010900001F004010591016841F0800101600168DF
:1010A00001F080010591016841F0010101600168D2
:1010B00001F001010591016841F00801016001683A
:1010C00001F008010591016841F00201016000682A
:1010D000244F00F002000590002208213846FFF757
:1010E00050FADFF88480BE14002231464046FFF7F4
:1010F00048FA7C20CDE9000469461C480294FFF7B9
:1011000063F94EF20F00CDE90004694618480294D5
:10111000FFF75AF90320CDE9000469461548029407
:10112000FFF752F90620CDE90004694638460294DB
:10113000FFF74AF9082000900125CDE901546946DE
:1011400038460394FFF740F90096CDE9015469460B
:1011500040460394FFF738F906B0BDE8F08100007F
:101160003038024000000240000C024000100240F3
:1011700000080240001C024010B586B0002411484F
:10118000009401940294039404944FF080410594D8
:1011900001600B21C0E901140C21C0E90314846132
:1011A000FFF743FD4FF48050009069460548FFF774
:1011B00073FD049404A903480594FFF715FD06B0D8
:1011C00010BD000010000020FEE77047704770B5AA
:1011D00089B2FFF7D1F970BD7047FFF7DDB90000A4
:1011E00030B593B030216846FFF722F814210CA8DF
:1011F000FFF71EF81A480025016841F08051016090
:10120000006800F0805011901648016841F4804158
:1012100001600068022400F48040119001200390D6
:1012200010200490009406940820CDE90750322045
:10123000099004200A9007200B906846FFF730FBC6
:101240000CA90F2081E831004FF4C0500F904FF4EB
:10125000A050109000210CA8FFF73AFA13B030BD4F
:1012600040380240007000401048016841F47001AD
:1012700001600F48016841F0010101600C4A002142
:101280000832116002680B4B1A400260031D0A4AC3
:101290001A60026822F48022026005480C30016066
:1012A00002495806803908607047000088ED00E068
:1012B00000380240FFFFF6FE103000240148FFF71F
:1012C00057BD000010000020F0B50268254C264DE7
:1012D000264E274F274B4FF0804CA04209D0604547
:1012E00007D0A84205D0B04203D0B84201D09842FE
:1012F00004D122F0700E4A6842EA0E02A0421BD0CE
:10130000604519D0A84217D0B04215D0B84213D0CA
:10131000984211D0184DA8420ED0184DA8420BD0BB
:10132000174DA84208D0174DA84205D0164DA84227
:1013300002D0164DA84203D122F44075CA682A4350
:101340004D6922F080022A4302608A68C2620A68FC
:101350008262A04201D0984201D109690163012152
:101360004161F0BD00000140000400400008004061
:10137000000C0040000401400040014000440140D6
:101380000048014000180040001C004000200040C0
:1013900010B5846842EA032224F47F440A432243BE
:1013A000826010BD826822F070020A4342F0070199
:1013B0008160704710B5036A046A24F00104046276
:1013C000846924F0F00444EA021423F00A020A4378
:1013D0008461026210BD10B5036A23F0100303623A
:1013E0008369046A23F4704343EA023224F0A003C1
:1013F00043EA01118261016210BD00002DE9F04154
:10140000044600680169E26821F44051114301611A
:101410002169A068E26908436169114322680843B1
:10142000D16849F20C6399430143D1602068416956
:10143000A26921F4407111434161E2696425B2F56A
:10144000004F9748974922684FF032083FD08A42B0
:1014500001D082427CD1FFF7E3F900EBC00101EB40
:10146000001061688900B0FBF1F6FFF7D9F900EBD5
:10147000C00101EB001061688900B0FBF1F0B0FB26
:10148000F5F06FF01801484306EB800108EB0110FE
:10149000B0FBF5F000F0F006FFF7C2F900EBC00179
:1014A00001EB001061688900B0FBF1F0B0FBF5F0D2
:1014B00006EB0016FFF7B4F900EBC00101EB0010DA
:1014C00061688900B0FBF1F7FFF7AAF9D2E08A4220
:1014D00001D082423DD1FFF7A3F900EBC00101EB3F
:1014E000001061684900B0FBF1F0B0FBF5F00601B7
:1014F000FFF796F900EBC00101EB001061684900AD
:10150000B0FBF1F7FFF78CF900EBC00101EB001025
:1015100061684900B0FBF1F0B0FBF5F06FF0180125
:10152000484307EB800108EBC100B0FBF5F000F089
:10153000F80006EB4006FFF773F900EBC00101EB82
:10154000001061684900B0FBF1F7FFF769F93CE072
:1015500055E0FFF755F900EBC00101EB00106168A1
:101560004900B0FBF1F0B0FBF5F00601FFF748F9D8
:1015700000EBC00101EB001061684900B0FBF1F71E
:10158000FFF73EF900EBC00101EB00106168490074
:10159000B0FBF1F0B0FBF5F06FF01801484307EB3A
:1015A000800108EBC100B0FBF5F000F0F80006EB9D
:1015B0004006FFF725F900EBC00101EB0010616860
:1015C0004900B0FBF1F7FFF71BF900EBC00101EB9D
:1015D000001061684900B0FBF1F0B0FBF5F06FF06E
:1015E0001801484307EB800108EBC100B0FBF5F0A0
:1015F00000F00700216830448860BDE8F081FFF703
:10160000FFF800EBC00101EB001061688900B0FB3E
:10161000F1F6FFF7F5F800EBC00101EB001061688F
:101620008900B0FBF1F0B0FBF5F06FF01801484312
:1016300006EB800108EB0110B0FBF5F000F0F006BE
:10164000FFF7DEF800EBC00101EB001061688900D4
:10165000B0FBF1F0B0FBF5F006EB0016FFF7D0F8A9
:1016600000EBC00101EB001061688900B0FBF1F7ED
:10167000FFF7C6F800EBC00101EB001061688900BC
:10168000B0FBF1F0B0FBF5F06FF01801484307EB49
:10169000800108EB0110B0FBF5F000F00F00A9E7A6
:1016A00000140140001001402DE9F0419846174612
:1016B0000E460446069D1DE0681C1BD02DB1FEF7AA
:1016C00065FFA0EB0800A84214D92068C16821F486
:1016D000D071C1602068416921F001014161202081
:1016E00084F8390084F83A00002084F83800032098
:1016F000BDE8F0812068006836EA000004D00020D0
:10170000B842D9D00020F3E70120F9E7FEE7090746
:10171000090E002804DB00F1E02080F80014704777
:1017200000F00F0000F1E02080F8141D704702E087
:1017300008C8121F08C1002AFAD17047704700205C
:1017400001E001C1121F002AFBD17047E4B0FEF78F
:101750001DFF0446FEF728FFFFF742FDFFF782FC5E
:101760001D491C480C2208604FF4165048600020A8
:101770008860C860C1E904028861C8610846FFF753
:10178000AEFBFFF7F9FC02A8FEF796FD0DF1080687
:10179000FEF7FCFEA042FBD05FF0000505EB450024
:1017A00006EBC000D0E90412CDE900120FC8FFF724
:1017B0000EFD6D1CEDB2102DF0D302A8641CFEF7D7
:1017C000EFFD8DF888010A23012262A90248FFF784
:1017D000EBFBDDE70010014050000020000000009E
:1017E00000000000010203040607080900000000D1
:1017F000010203041418000800000020100000007B
:101800002E17000824180008100000208004000093
:101810003E1700080100000010000000000000005A
:041820000024F400AC
:040000050800018965
:00000001FF
