:020000040800F2
:10000000080E00209D010008A3230008E11F00083E
:10001000A1230008CD020008B73B00080000000043
:10002000000000000000000000000000B3230008F2
:100030000104000800000000B1230008B5230008F7
:10004000B7010008B7010008B7010008B7010008B0
:10005000B7010008B7010008B7010008B7010008A0
:10006000B7010008B7010008B7010008B701000890
:10007000B7010008B7010008B7010008B701000880
:10008000B7010008B7010008B7010008B701000870
:10009000B7010008B7010008B7010008B701000860
:1000A000B7010008B7010008B7010008B701000850
:1000B000B7010008B7010008B7010008B701000840
:1000C000B7010008B7010008B7010008B701000830
:1000D000B7010008B7010008B7010008B701000820
:1000E000B7010008B7010008B7010008B701000810
:1000F000B7010008B7010008B7010008B701000800
:10010000B7010008B7010008B7010008B7010008EF
:10011000B7010008B7010008B7010008B7010008DF
:10012000B7010008B7010008B7010008B7010008CF
:10013000B7010008B7010008B7010008B7010008BF
:10014000B7010008B7010008B7010008A52300089F
:10015000B7010008B7010008B7010008B70100089F
:10016000B7010008B7010008B7010008B70100088F
:10017000B7010008B7010008B7010008000000003F
:10018000B7010008B7010008DFF80CD000F08CF8C8
:1001900000480047493C0008080E002006488047F8
:1001A00006480047FEE7FEE7FEE7FEE7FEE7FEE75C
:1001B000FEE7FEE7FEE7FEE7552400088901000898
:1001C0002DE9F05F0546002092469B46884606468C
:1001D000814640241BE0284641464746224600F01F
:1001E00053F853465A46C01A914110D31146184647
:1001F000224600F03AF82D1A67EB01084F462246D6
:100200000120002100F031F817EB00094E41201EBB
:10021000A4F10104DFDC484631462A464346BDE8E6
:10022000F09F40EA01039B0703D009E008C9121FB1
:1002300008C0042AFAD203E011F8013B00F8013BA0
:10024000521EF9D27047D2B201E000F8012B491ECC
:10025000FBD270470022F6E710B513460A46044663
:100260001946FFF7F0FF204610BD202A04DB203A94
:1002700000FA02F1002070479140C2F1200320FAF9
:1002800003F3194390407047202A04DB203A21FAF7
:1002900002F00021704721FA02F3D040C2F120029F
:1002A0009140084319467047064C074D06E0E06848
:1002B00040F0010394E8070098471034AC42F6D3AD
:1002C000FFF766FFC03D0008E03D0008FEE7016063
:1002D00082800021C0E902110174704770B50546A3
:1002E000D0F87803C46994F84E0003281BD0042882
:1002F00018D1217B284602F0CEFE012812D1217BA5
:10030000284602F0B3FEA16A814214D0628B824279
:1003100011D2091AA162216A084420625FF0030029
:1003200084F84E0070BD237B628B2846216A02F060
:100330005DFA0420F4E7002084F84E00284602F01D
:10034000B1FB70BDF8B50646D0F878030125C46945
:1003500094F84D0001280AD0022807D1617B30466D
:1003600002F099FE012811D002281AD0F8BD228B84
:10037000606A0095637B904200D882B23046E169A2
:1003800002F044FA022084F84D00F8BD208B626A26
:100390000021824208D9121A6262E3691844E061BE
:1003A00003D084F84D50F8BD616284F84D1030469A
:1003B00002F07BFBF8BD000010B500224FEA0201FD
:1003C00000EB8203521CC3F880130F2AF8D30022DB
:1003D0004FF400738418521C84F81C119A42F9D30C
:1003E0000170417001228270C0F8BC130276402374
:1003F0008371417680F81C1380F81D23002010BD06
:1004000070477047A1220274212242740022428266
:1004100082820722C28202F06CBB000070B50446E3
:1004200000F0F0F80546601C02D00448007804444F
:1004300000F0E8F8401BA042FAD370BD080000208D
:100440002DE9F84FDFF87CB100224FF001084FF0A2
:10045000030A4FF00F090BF1040E00BF0B6808FAF6
:1004600002F42340A3426ED14D68022D01D0122D1B
:100470000ED1D50800EB850CDCF820505607F70E9E
:1004800009FA07F6B5430E69BE402E43CCF820604A
:10049000066855000F790AFA05FC07F0030726EAFB
:1004A0000C06AF40374307604E68012E05D0022E80
:1004B00003D0112E01D0122E0ED18668CF6826EA05
:1004C0000C06AF40374387604668A6430C79C4F3F7
:1004D0000014944034434460C6688C6826EA0C06D5
:1004E000AC403443C4604C68E40065D5364C2568A4
:1004F00045F480452560246822F0030504F4804417
:100500000094324C2E19D6F8084895072F0F09FA97
:1005100007F5AC432E4DA84201D1002524E02D4D16
:10052000A84201D101251FE02B4DA84201D102258F
:100530001AE02A4DA84201D1032515E0284DA84212
:1005400002D1042510E037E0264DA84201D105254F
:100550000AE0254DA84201D1062505E0234DA84219
:1005600001D1072500E00825BD402543C6F80858FD
:10057000DBF800405D464E689C43F60300D51C4303
:100580002C60DEF8004075464E689C43B60300D5EB
:100590001C432C600B4D08352C684E689C43F602BA
:1005A00000D51C432C60074D0C352C684E689C43CD
:1005B000B60200D51C432C60521C102AFFF44EAF2B
:1005C000BDE8F88F003C0140443802400030014053
:1005D000000002400004024000080240000C0240FB
:1005E000001002400014024000180240001C0240AB
:1005F0000069084000D0012070470AB1816170474E
:100600000904FBE7014880687047000008000020EB
:10061000D0F8C00202F0ECBCD0F8C00202F0FDBC81
:10062000006803F019B8006803F01AB801EB810103
:1006300000EBC10090F85C00704701EB810100EB1A
:10064000C100C06C704710B5044690F8B80201288C
:1006500009D0012084F8B802206803F00CF80020CB
:1006600084F8B80210BD022010BD2DE9FE430546F6
:10067000DDE90B7095F8B842DDF828C0012C1CD0DC
:1006800001EB81044FF0010905EBC40485F8B89231
:10069000002684F83D6084F83830A4F8400084F8DF
:1006A000391084F83F7002F07F0884F83A805FEADE
:1006B000026805D584F83B9004E00220BDE8FE8383
:1006C00084F83B6084F83CC0CDF800C0CDE90170EF
:1006D000286803F031F885F8B862EFE770472DE934
:1006E000F04101EB8104DDE907E700EBC404DDF82C
:1006F00018C084F83B20022684F83F30BCF1000F7C
:100700000AD084F84260002553B1012B2BD0022B74
:100710000FD0032B13D10CE0032584F84250F2E7ED
:10072000BCF1010F0BD152B9D7B9012284F8512085
:1007300003E0AAB194F85020AAB184F84260C4E959
:1007400011E784F85C50E56484F8391084F85D5052
:10075000027C04F138010068BDE8F04103F068B89C
:1007600094F85120E8E784F84250E8E72DE9F04199
:1007700004460068064602F07AFF01286FD120681F
:1007800003F085F900286AD0206803F080F9800220
:1007900003D521684FF400104861206803F077F911
:1007A000C00203D521684FF480104861206803F02F
:1007B0006EF9400103D521684FF0806048612068E0
:1007C00003F065F9800702D521680220486120689E
:1007D00003F05DF9800010D5D6F8400420F02E001B
:1007E000C6F840042046FFF717FF0121206803F0F8
:1007F00033F921684FF000504861206803F047F951
:10080000C00102D5204601F056FB206803F03FF9F5
:10081000000705D5204600F0D0F82168082048617F
:10082000206803F034F9800124D5206802F0FCFF31
:10083000074600254FF0010815E000BF05F00F0145
:1008400008FA01F038420DD006EB4510D0F800054B
:10085000E9B20004204603D501F0F5F802E01CE0FF
:1008600001F007FA6D1CA068A842E7D821684FF094
:1008700000704861206803F00AF9C043C0060CD438
:100880002068816921F010018161204601F070FB30
:100890002068816941F010018161BDE8F08170B587
:1008A0008AB0040005D094F8B9022568002618B172
:1008B00007E001200AB070BD84F8B862204600F05D
:1008C00027F8032084F8B902E86BC00500D426613C
:1008D000206802F06BFE04F1100128220D466846E4
:1008E000FFF79FFC94E80F0002F00AFE0121206848
:1008F00003F0F8F8282229466846FFF792FC94E8AE
:100900000F0003F03DF8012084F8B9020020D1E780
:1009100030B587B0044614216846FFF79BFC206879
:10092000B0F1A04F38D11D480024016841F0010109
:10093000016000681A4D00F0010005904FF400704E
:10094000CDE90004694628460294FFF779FD4FF48B
:10095000E05000900220CDE901040A20CDE90340D7
:1009600069462846FFF76CFD0C48001D016841F000
:100970008001016009481430016841F48041016040
:100980000068002200F4804005901146432000F0EA
:100990009BFB432000F08AFB07B030BD303802409B
:1009A00000000240D0F8C00202F0BEBBD0F8C00286
:1009B00002F0BEBB006803F07CB8D0F8C00202F0C1
:1009C0006EBB10B5044690F8B80201280DD0012086
:1009D00084F8B802206802F017FE0121206802F0B6
:1009E000FDFD002084F8B80210BD022010BD10B536
:1009F000044690F8B802012809D0012084F8B80212
:100A0000206803F087F8002084F8B80210BD0220A7
:100A100010BD000070B504001BD094F83D00002507
:100A200020B984F83C50204600F0AEF8242084F829
:100A30003D002068016821F00101016000F0DAFC4E
:100A40004D4A6168914201D84C4900E04C498842C6
:100A500001D2012070BD4B492368B0FBF1F15E6803
:100A600026F03F060E435E606368934206D94FF45A
:100A7000967359434FF47A73B1FBF3F12368491C21
:100A80001E6A26F03F06314319626168914210D810
:100A90004900401EB0FBF1F2521CC2F30B02042AC3
:100AA00001D2042022E0B0FBF1F0401CC0F30B00A7
:100AB0001CE0A368F3B301EBC10202EB0116421E76
:100AC000B2FBF6F2521C42F48042120549D093B3B5
:100AD00001EBC10202EB0111401EB0FBF1F0401C22
:100AE000C0F30B0040F4804040F400402168CA6924
:100AF0004CF6FF739A431043C861D4E907010843D9
:100B000021680A6822F0C00210430860D4E903019A
:100B100001432068826848F2FF339A4311438160A1
:100B2000D4E9050108432168CA6822F0FF02104396
:100B3000C86001E00EE016E02068016841F00101A4
:100B400001602564202084F83D00256384F83E5030
:100B5000002070BD01EB4106421EB2FBF6F2521CB2
:100B6000B3E70120C2E701EB4101401EB0FBF1F009
:100B7000401CC0F30B00B7E7A086010080841E0074
:100B800000093D0040420F0010B586B00446142114
:100B90006846FFF75FFB14492068884221D113485B
:100BA0000021026842F002020260006800F00200C8
:100BB00005904FF410700090122001900120CDE9B3
:100BC00002010420049069460948FFF739FC0748F0
:100BD0001030016841F400110160006800F4001059
:100BE000059006B010BD00000054004030380240AF
:100BF000000402402DE9FF4104460068816800912D
:100C00007749784E4FF04027884201D1324600E0C4
:100C10003A469268019240688846029001D1304677
:100C200000E038464068039060684FF00105B0F579
:100C3000007F1CD0D8B1900705D50398000602D5D7
:100C4000204601F0FFF90098C0070FD00298400637
:100C50007FD521682046CA68E16A8B1CE3620A805E
:100C6000618E491E6186618E002967D071E000980F
:100C7000800719D50298000616D5616A20468A1C9D
:100C8000626222680988D160618D491E6185618D2B
:100C900051B901684A6822F0A0024A60418E19B930
:100CA00080F8415000F0A0F80198C00705D00398E3
:100CB000400602D5204601F095F90198400622D55C
:100CC000039880061FD52168414501D1304600E0D8
:100CD0003846406820F0600101D1304600E03846D7
:100CE00041602068416821F0A00141602068C1682E
:100CF0008068019084F84150606C40F002006064AC
:100D0000204600F072F80098000767D50298800628
:100D100064D52068416821F0A00141602168414507
:100D200001D1304600E03846406820F0600000D035
:100D30003E46706020688068009043E001684A6821
:100D400022F060024A60418D19B980F8415000F0EC
:100D50004BF8009840061ED5029880061BD52068E7
:100D6000416821F0600141602168414501D1304670
:100D700000E03846406820F0A00101D1304600E094
:100D80003846416084F84150606C40F00200606475
:100D9000204600F02AF8019800071FD50398800626
:100DA0001CD52168414501D1304600E038464068F5
:100DB00020F0A00000D03E4670602068416821F01D
:100DC0006001416084F84150606C40F00400606450
:100DD00004B02046BDE8F04100F007B8BDE8FF814F
:100DE0000038004000340040704770472DE9F0475C
:100DF000040005D094F841004FF0000818B109E054
:100E00000120BDE8F08784F84080514860632046A7
:100E100000F0A6F8022684F841602068C16940F617
:100E2000BF77B943C1612068066260694FF40079F9
:100E300002282FD0E06870B12025A068202800D8B3
:100E40006D00012000F072F9216949451FD1E16868
:100E500019B1A90002E01025EFE7E900B0FBF1F0BD
:100E600000EB800061694000B0FBF1F0401D0A21F9
:100E7000B0FBF1F000F00101401A40080902821EA7
:100E8000FE2A09D3606C40F010006064B8E7B0FB44
:100E9000F5F0E5E7022000212269084302432068BB
:100EA0000262D4E901010843A269E16811430843E1
:100EB0002168CA69BA43104340F40060C861206ADF
:100EC00001283AD12348606323482168234A4FF020
:100ED0004023814201D1114600E01946C96921EA47
:100EE000070101D1154600E01D46E96121688142F4
:100EF00001D1114600E019460E622568854201D1F4
:100F0000114600E01946C9698EB2616849451BD097
:100F1000D1B100212789B4F80CC047EA0C07B4F816
:100F200018C04CEA010C47EA0C07B9B2314341F44E
:100F30000061854200D01A46D161C4F84480012086
:100F400084F8410000205CE74FF48071E2E7000084
:100F5000A5200008F50B00080038004000340040D0
:100F600070B586B0044614216846FFF773F91C4932
:100F70002068884232D11B480024016841F40041B6
:100F80000160006800F400400590164810380168C0
:100F900041F001010160016801F001010591016862
:100FA00041F0040101600068022500F00400059092
:100FB00010200090CDE901540626CDE9034669468C
:100FC0000948FFF73DFA4FF4A4500090CDE90154D1
:100FD000CDE9034669460548FFF732FA06B070BD11
:100FE000003C00404038024000000240000802403F
:100FF00070477047024881680278114481607047E9
:10100000080000200B4810B5016841F40071016030
:10101000016841F480610160016841F48071016000
:10102000032000F071F8002000F006F800F024F82A
:10103000002010BD003C024070B50D4D04464FF439
:101040007A712878B1FBF0F00A490968B1FBF0F039
:1010500000F022FC48B9102C07D200222146501E75
:1010600000F032F800206C6070BD012070BD0000FF
:1010700008000020140000200B4882B0016841F4F1
:1010800080410160006800F4804000900648001F25
:10109000016841F080510160006800F080500090CC
:1010A000072002B000F030B844380240002809DBC5
:1010B00000F01F02012191404009800000F1E02072
:1010C000C0F8001170470000F0B40E4B1B680C46CE
:1010D000C3F30223C3F10705042D00D90425191D0C
:1010E000072901D2002300E0DB1E012606FA05F1E4
:1010F000491E214099409E40761E16403143F0BC67
:1011000002F05ABD0CED00E0064900F00702086845
:101110004FF6FF03184040EA0220034A10430860DC
:10112000704700000CED00E00000FA0501460020C9
:10113000012907D11049096811F4000103D00129E0
:1011400000D10E4870470C48001F01680068490232
:1011500000F03F0001D50A4900E00A49064AB1FB08
:10116000F0F07C321168C1F3881141431068C0F37C
:101170000270B1FBF0F07047083802400080BB00FD
:1011800000127A000024F4002DE9F84305460068B7
:101190004FF00109C1074FF0000601D1400727D5E4
:1011A000DFF80C81C8F86860FFF72CFA0746414C5D
:1011B00005E000BFFFF726FAC01B022857D82068B9
:1011C0000001F7D468688101287A41EA0070394942
:1011D00084310860C8F86890FFF714FA074604E005
:1011E000FFF710FAC01B022841D820680001F7D58C
:1011F0002878800752D52F484030016841F080514F
:10120000016000682C4C00F080500090206840F491
:1012100080702060FFF7F6F9074604E0FFF7F2F967
:10122000C01B022823D82068C005F7D5214C703494
:10123000206810F4407020D0A98901F440718142E7
:101240001BD020681D4920F44070C1F800900E604A
:1012500020602068C00710D0FFF7D4F9064641F29D
:10126000883707E0FFF7CEF9801BB84202D9032088
:10127000BDE8F88320688007F4D5E9680D48C1F31C
:1012800001220830032A0BD0016821F4F811016013
:101290002068A989C1F30B01084320600020E7E71B
:1012A0000268074B22F4F81219400A430260EFE784
:1012B000000047420038024000700040400E4742A4
:1012C000FFFCFF0F2DE9F0470E46050065D0DFF863
:1012D0001481D8F80000F7B200F00F00B04207D236
:1012E00088F80070D8F8000000F00F00B04254D128
:1012F00028683D4C810712D5400703D5206840F48B
:10130000E05020602878000703D5206840F4604052
:1013100020602068A96820F0F00008432060287849
:10132000C0072DD0304968680839012812D002283A
:1013300013D0032811D00968890700292DDA216804
:1013400021F0030101432160FFF75CF9814641F27E
:10135000883A0EE009688903EFE709688901ECE73C
:10136000FFF750F9A0EB0901514502D90320BDE870
:10137000F0872068696800F00C00B0EB810FEFD1B6
:10138000D8F80010404601F00F01B14207D90770AC
:10139000006800F00F00B04201D00120E7E7287894
:1013A000400705D52068E96820F4E0500843206034
:1013B0002878000706D52068296920F4604040EAB3
:1013C000C100206000F036F82168084AC1F303111B
:1013D000515CC840064908600020FFF72DFE002040
:1013E000C5E70000003C024008380240A43D000868
:1013F000140000200448054900680968044AC1F344
:101400008221515CC8407047140000200838024017
:10141000B43D00080448054900680968044AC1F35E
:101420004231515CC8407047140000200838024027
:10143000B43D0008154810B5006810F00C021448BF
:1014400013D04110042A0FD0082A0ED10F4C241FAC
:101450002268236802F03F025B0207D52068C0F3D0
:101460008810A0FB010106E0084610BD2168C1F309
:101470008811A1FB00010023FEF7A2FE2168C1F341
:101480000141491C4900B0FBF1F010BD0838024091
:101490000024F4002DE9F84F050076D02878DFF815
:1014A000F8B2BE4CC00749D0DBF800105846C1F373
:1014B0008101012908D00068C0F3810002280AD107
:1014C000201D0068400206D52068800336D5686874
:1014D0000028E2D032E06868B0F5803F10D0B0F567
:1014E000A02F206810D020F480302060206820F4E5
:1014F000802020606868A0B1FFF784F806460CE001
:10150000206840F48030F4E740F480202060F7E762
:10151000FFF778F8801B642873D820688003F7D51C
:101520000CE0FFF76FF8064605E000BFFFF76AF82A
:10153000801B6428F0D820688003F7D42878DFF86F
:10154000608280074FF000093ED5DBF80010584656
:1015500011F00C0F09D00068C0F3810002280BD1F4
:101560008D48001F0068400206D42068800715D50A
:10157000E868012809D111E0E868B8B10120C8F88D
:101580000000FFF73FF8064605E002E1FFF73AF8F2
:10159000801B0228C0D820688007F7D520682969F9
:1015A00020F0F80040EAC10020600DE0C8F800908B
:1015B000FFF728F8064604E0FFF724F8801B02280E
:1015C0001FD820688007F7D42878000722D5724EEC
:1015D000744869696C3671B101210160FFF712F836
:1015E000074604E0FFF70EF8C01B022809D8306850
:1015F0008007F7D50EE0C0F80090FFF703F8074624
:1016000005E083E0FEF7FEFFC01B02287ED83068AD
:101610008007F7D42878400768D5DFF87CA1002739
:101620000AF1380ADAF80000C0000BD4DAF800102A
:1016300041F08051CAF80010DAF80000012700F0EC
:1016400080500090584E3068C00510D4306840F487
:1016500080703060FEF7D6FF009005E0FEF7D2FF05
:101660000099401A022851D83068C005F6D54A4E74
:10167000A868683601280FD00528306810D020F0FF
:1016800001003060306820F004003060A868B8B114
:10169000FEF7B8FF00900FE0306840F00100F4E77B
:1016A00040F004003060F7E7FEF7ACFF0099411A04
:1016B00041F28830814264D830688007F4D50EE06A
:1016C000FEF7A0FF009007E0FEF79CFF0099411A8B
:1016D00041F28830814254D830688007F4D42FB169
:1016E000DAF8001021F08051CAF80010A869C0B3E0
:1016F000DBF80010C1F3810102294AD002284846D4
:1017000007D0C8F86000FEF77DFF00E039E005462D
:101710003AE04746C8F86000FEF774FF064604E06A
:10172000FEF770FF801B02282BD820688001F7D4B9
:10173000D5E907010843A96A1C4A490802EB01419F
:101740006A6A41EA8211084395F82C1040EA016167
:101750001148001F016001203866FEF753FF05465F
:1017600005E014E0FEF74EFF401B022809D8206870
:101770008001F7D50BE000BFFEF744FF401B0228B5
:1017800002D90320BDE8F88F20688001F4D400203E
:10179000F8E70120F6E70000083802400038024070
:1017A00000004742800E4742007000400000FFFFEB
:1017B00070B5040005D00025A56294F8510010B161
:1017C00006E0012070BD84F85050204600F030F84B
:1017D000022084F851002068016821F04001016076
:1017E000D4E901010843D4E90312114308436169B4
:1017F0000843218B01F400710843E1690843216A21
:101800000843A16A084321680860A069042101EA2D
:101810001040616A0843216848602068C16921F46A
:101820000061C1616565012084F85100002070BD30
:1018300010B586B0044614216846FEF70BFD134927
:10184000206888421FD112480021026842F4805269
:101850000260006800F4805005900D48143802685A
:1018600042F001020260006800F001000590E020F3
:1018700000900220CDE901010520CDE90310694661
:101880000448FEF7DDFD06B010BD00000030014049
:10189000443802400000024010B5401EB0F1807F85
:1018A00001D3012010BD4FF0E02460610F216017CB
:1018B00002F082F90020A06107202061002010BD05
:1018C00070B5040004D094F83900002510B106E08A
:1018D000012070BD84F83850204600F023F8242001
:1018E00084F839002068C16821F40051C1602046A5
:1018F00000F0DAFD2068016921F49041016120685F
:10190000416921F02A0141612068C16841F4005118
:10191000C160E563202084F8390084F83A00002093
:1019200070BD000010B586B0044614216846FEF76D
:1019300091FC13492068884220D11248016841F483
:1019400000310160006800F4003005900D48103847
:10195000016841F0010101600068694600F0010082
:1019600005900C200090022001900120029003209D
:101970000390072004900448FEF762FD06B010BDF6
:101980000044004040380240000002402DE9F84386
:10199000044690F839001F4616460D46202850D1BF
:1019A000A5B19EB194F8380001284AD0012084F8EE
:1019B00038004FF00008C4F83C80212084F839003A
:1019C000FEF720FEA6848146E68426E00120BDE8DD
:1019D000F883E08C401EE084A0684B46B0F5805F41
:1019E0004FF000024FF080012046009703D000F036
:1019F000B1FEE8B90DE000F0ADFEC8B92888216855
:101A0000C0F308004860206908B16D1C05E0AD1CFA
:101A100003E0216815F8010B4860E08C0028D8D15C
:101A20004B46002240212046009700F093FE08B16B
:101A30000320CCE7202084F8390084F83880002087
:101A4000C5E70220C3E72DE9F05F074600680E46B0
:101A500000EB4114D4F808054FF0040B420701EBEA
:101A600086004FF0050A4FF0100807EBC00508D5B7
:101A7000C4F808B5D4F80C0540F00200C4F80C0511
:101A800030E0D4F80805800601D5202028E0D4F8FD
:101A900008054FF0080900070FD5D4F80C0540F0F1
:101AA0000200C4F80C0585F85DA0C4F80885C4F8E8
:101AB0000895386801F0DFFD14E0D4F8080540050A
:101AC00010D5D4F80C0540F00200C4F80C053868B5
:101AD00001F0D1FDC4F8088585F85D904FF4806071
:101AE000C4F80805D4F8080580050ED5D4F80C050F
:101AF00040F00200C4F80C05314604F5A1643868D2
:101B000001F0B9FD4FF4007090E0D4F808054FF0F3
:101B10000001C0074FF0010237D0386930B1A86C1E
:101B2000D4F81035C3F31203C01AE86485F85D20B9
:101B3000A965C4F8082595F83F0020B1022802D015
:101B400003280FD01AE0D4F80C0540F00200C4F8C6
:101B50000C05314604F5A164386801F08CFDC4F829
:101B600000800BE0D4F8000540F00050C4F80005F8
:101B700085F85C2031463846FEF7B0FD15F8500F69
:101B800080F001002870BDE8F09FD4F808058007B8
:101B900035D5D4F80C0520F00200C4F80C0595F8F2
:101BA0005D000223012808D0052809D006280AD0A4
:101BB000082808D003281FD015E085F85C2012E023
:101BC00085F85CA00FE0A86D401CA865032813D918
:101BD000A96585F85CB0D4F8000520F0804040F09D
:101BE0000040C4F80005C4F8083595F85C2031467B
:101BF0003846FEF773FDC6E785F85C30EBE7D4F8AE
:101C00000805000614D5D4F80C0540F00200C4F80D
:101C10000C05A86D3146401CA865062085F85D00BE
:101C200004F5A164386801F026FD80202060AAE751
:101C3000D4F80805C006A6D595F83F00032803D0C0
:101C400020B1022802D011E0A96505E0A965386934
:101C500060B9032085F85D00D4F80C0540F002005F
:101C6000C4F80C053146386801F005FDC4F8088554
:101C700089E72DE9F047026802EB4114D4F8082502
:101C80004FF00403520709D5C4F80835D4F80C0501
:101C900040F00200C4F80C05BDE8F087D4F8082530
:101CA00001EB810596064FF0000200EBC5054FF0F1
:101CB000020C15D52023C4F8083595F83D30012BCA
:101CC000EAD185F83D2085F85CC0D4F80C2542F0B7
:101CD0000202C4F80C250068BDE8F04701F0CBBC57
:101CE000D4F8086577064FF0010611D585F85D3008
:101CF00085F83D60AA65D4F80C2542F00202C4F8CC
:101D00000C25006804F5A16401F0B5FC402010E04A
:101D1000D4F80875BF050ED5D4F80C2542F00202A0
:101D2000C4F80C25006804F5A16401F0A4FC4FF48C
:101D300000702060B0E7D4F80875FF070FD0AA65DF
:101D4000D4F80C2542F00202C4F80C25006804F512
:101D5000A16401F090FC266085F85D609CE7D4F8F2
:101D600008754FF005095FEA07784FF008070DD5B1
:101D7000C4F80875D4F80C2542F00202C4F80C250A
:101D8000006801F078FC85F85D9085E7D4F8088557
:101D90004FF0100A5FEAC86818D5AA65032285F8D3
:101DA0005D2095F83D2022B995F83C200AB985F8C8
:101DB0003D60D4F80C2542F00202C4F80C250068FE
:101DC00004F5A16401F057FC5046B2E7D4F8088549
:101DD0005FEA08680FD5D4F80C2542F00202C4F877
:101DE0000C25006804F5A16401F045FC062085F887
:101DF0005D0080209DE7D4F808855FEA485812D539
:101E0000D4F80C2542F00202C4F80C25006804F551
:101E1000A16401F030FCC4F800A04FF480602060A1
:101E200085F85D7038E7D4F80875BF0796D5D4F803
:101E30000C7527F00207C4F80C7595F85D70012F3A
:101E40000AD0032F17D0042F15D0052F16D0062F38
:101E500017D0082F15D027E085F85C6095F83F2053
:101E6000022A01D0032A1FD195F8512082F00102E5
:101E700085F8512018E085F85CC015E085F85C9085
:101E800012E0AE6D761CAE65032E03D9AA6585F807
:101E90005C3001E085F85CC0D4F8002522F0804277
:101EA00042F00042C4F80025C4F808C595F85C204B
:101EB000FEF714FCF0E67CB504680546D4F840044F
:101EC0000190D4F8400420F02E0000900198800783
:101ED0000DD50198C00706D0A06920F00051A1617E
:101EE0002846FEF795FB009840F00200009001980C
:101EF000000732D5009840F0080000900198400794
:101F00001DD5A869022803D0E86801280CD00FE08D
:101F10000198C0F341400228286803D0012101F054
:101F20009BFD05E00221FAE74EF66020C4F80404A8
:101F30002846FEF73BFD2846FEF76AFB0DE02846E3
:101F4000FEF730FDD4F8400420F02E00C4F8400421
:101F50002868816941F000518161019880060098EC
:101F600002D540F020000090C4F840047CBD000081
:101F70002DE9F041024600680646016AC1F3434379
:101F800001F00F07C1F30A14022B25D1002C23D036
:101F900007EB870102EBC105696C00291CD02246C2
:101FA00001F079FD686C20446864E86C2044E864C2
:101FB00006EB4710D0F81015084A11420CD0D0F8A3
:101FC000001521F0804141F00041C0F8001515F8DE
:101FD000500F80F001002870BDE8F0810000F81F6C
:101FE000FEE7000070B515490268154B4FF040241C
:101FF0008A4201D11A4600E02246D568C26A961C80
:10200000C6621580428E521E4286428E002A14D12C
:1020100002688A4201D1194600E02146496821F050
:10202000600100D023465960418D002905D14FF051
:10203000010180F84110FEF7D7FE70BD0038004066
:102040000034004070B5416A144B8A1C4262056836
:102050000988134A4FF040249D4201D1154600E003
:102060002546E960418D491E4185418D002914D1E5
:102070000168994201D1114600E02146496821F0EA
:10208000A00100D022465160418E002905D14FF0B9
:10209000010180F84110FEF7A7FE70BD0038004036
:1020A000003400407CB5016804468868009094F8CC
:1020B00041000125042834D10098C00718D0486891
:1020C000C043400614D4C9682046E26A1180E16A20
:1020D000891CE162618E491E6186618E41B9016889
:1020E0004A6822F060024A6080F84150FEF780FFA3
:1020F0000098400615D520684168C943890610D468
:10210000416821F0600141602068C16880680190E9
:1021100084F84150606C40F0020060642046FEF795
:1021200064FE94F84100032834D10098800719D543
:1021300021684868C043000614D4626A20461288A9
:10214000CA60616A891C6162618D491E6185618D09
:1021500041B901684A6822F0A0024A6080F8415003
:10216000FEF747FF0098000714D520684168C9436F
:1021700089060FD4416821F0A00141602068806881
:10218000009084F84150606C40F004006064204688
:10219000FEF72BFE7CBD000020B100220121024889
:1021A000FEF72BBA0122F9E7000802402DE9F04FB3
:1021B00087B014216846FEF74DF8524800240168A4
:1021C00041F010010160016801F010010591016802
:1021D00041F004010160016801F00401059101680A
:1021E00041F080010160016801F080010591016802
:1021F00041F001010160016801F0010105910168F0
:1022000041F002010160016801F0020105910168DD
:1022100041F0080101600068002200F0080005900C
:1022200008213948FEF7E9F9DFF8E080012211467C
:102230004046FEF7E2F9DFF8D8B04FF2100A00226C
:1022400051465846FEF7D9F94FF004090226CDF859
:102250000090CDE9014669462B48FEF7F1F80827C2
:1022600001250097CDE90154694627480394FEF7FC
:10227000E7F80095CDE90154694640460394FEF71E
:10228000DFF80097CDE901640527CDE903476946EA
:102290004046FEF7D5F8DFF87C800095CDE9018453
:1022A00069461D48FEF7CCF8CDE90094DFF86C9044
:1022B000694648460294FEF7C3F8A8020090CDE9AB
:1022C0000164CDE9034769464846FEF7B9F8CDF801
:1022D00000A0CDE90154694658460394FEF7B0F8D2
:1022E0002020CDE90004694658460294FEF7A8F87C
:1022F0000096CDE9018469460348FEF7A1F807B0CE
:10230000BDE8F08F30380240001002400008024063
:10231000000C0240000012100000024000040240C5
:102320000B480A494FF4007201604FF4827141601A
:1023300000218160C1600161C0E90512C1610162D3
:10234000416281620A21C162FFF732BA0030014066
:10235000DC00002010B501220B490C4800F027FEDC
:1023600008B1FEF74EF80A49084801F06CF808B1C8
:10237000FEF747F8054801F0A9F8002803D0BDE8AA
:102380001040FEF73EB810BDE13400087401002093
:1023900018000020014800F086BF000074010020F2
:1023A000FEE770470148FEF7E1B900004005002054
:1023B00070477047FEF71EBE70B596B03021684674
:1023C000FDF748FF14210CA8FDF744FF00251F4826
:1023D0001195129513951495016841F08051016093
:1023E000006800F0805015901948016841F4804160
:1023F00001600068012600F4804015903004CDE9AA
:10240000006002248001CDE90640082008904FF4C6
:10241000A870CDE9090407200B906846FFF73AF849
:102420000CA90F2081E831004FF4A0500F90E0027A
:10243000109005210CA8FEF745FFC020CDE912043D
:10244000119611A8FEF7A0FE16B070BD40380240EC
:10245000007000401048016841F4700101600F48AD
:10246000016841F0010101600C4A0021083211604D
:1024700002680B4B1A400260031D0A4A1A60026888
:1024800022F48022026005480C300160024958069F
:10249000803908607047000088ED00E00038024095
:1024A000FFFFF6FE103000242DE9F04104460068DD
:1024B0000169E26821F44051114301612169A0687A
:1024C000E26908436169114322680843D16849F20F
:1024D0000C6399430143D16020684169A26921F4EA
:1024E000407111434161E2696425B2F5004F97489C
:1024F000974922684FF032083FD08A4201D0824289
:102500007CD1FEF787FF00EBC00101EB0010616892
:102510008900B0FBF1F6FEF77DFF00EBC00101EB97
:10252000001061688900B0FBF1F0B0FBF5F06FF0CE
:102530001801484306EB800108EB0110B0FBF5F0F1
:1025400000F0F006FEF766FF00EBC00101EB0010A3
:1025500061688900B0FBF1F0B0FBF5F006EB001606
:10256000FEF758FF00EBC00101EB00106168890025
:10257000B0FBF1F7FEF74EFFD2E08A4201D0824273
:102580003DD1FEF747FF00EBC00101EB0010616891
:102590004900B0FBF1F0B0FBF5F00601FEF73AFFA1
:1025A00000EBC00101EB001061684900B0FBF1F7DE
:1025B000FEF730FF00EBC00101EB0010616849003D
:1025C000B0FBF1F0B0FBF5F06FF01801484307EBFA
:1025D000800108EBC100B0FBF5F000F0F80006EB5D
:1025E0004006FEF717FF00EBC00101EB0010616829
:1025F0004900B0FBF1F7FEF70DFF3CE055E0FEF7B8
:10260000F9FE00EBC00101EB001061684900B0FB6E
:10261000F1F0B0FBF5F00601FEF7ECFE00EBC001B7
:1026200001EB001061684900B0FBF1F7FEF7E2FE34
:1026300000EBC00101EB001061684900B0FBF1F054
:10264000B0FBF5F06FF01801484307EB800108EB91
:10265000C100B0FBF5F000F0F80006EB4006FEF715
:10266000C9FE00EBC00101EB001061684900B0FB3E
:10267000F1F7FEF7BFFE00EBC00101EB001061684F
:102680004900B0FBF1F0B0FBF5F06FF018014843E2
:1026900007EB800108EBC100B0FBF5F000F007008C
:1026A000216830448860BDE8F081FEF7A3FE00EBAE
:1026B000C00101EB001061688900B0FBF1F6FEF784
:1026C00099FE00EBC00101EB001061688900B0FBCE
:1026D000F1F0B0FBF5F06FF01801484306EB800114
:1026E00008EB0110B0FBF5F000F0F006FEF782FEFB
:1026F00000EBC00101EB001061688900B0FBF1F054
:10270000B0FBF5F006EB0016FEF774FE00EBC0011F
:1027100001EB001061688900B0FBF1F7FEF76AFE7B
:1027200000EBC00101EB001061688900B0FBF1F023
:10273000B0FBF5F06FF01801484307EB800108EBA0
:102740000110B0FBF5F000F00F00A9E70014014004
:10275000001001402DE9F041984617460E46044608
:10276000069D1DE0681C1BD02DB1FDF74BFFA0EBB3
:102770000800A84214D92068C16821F4D071C16052
:102780002068416921F001014161202084F839006D
:1027900084F83A00002084F838000320BDE8F08176
:1027A0002068006836EA000004D00020B842D9D082
:1027B0000020F3E70120F9E710B500224FF6FF7380
:1027C00000EB8204B4F88043240409D49A4205D073
:1027D00000EB820041F40041C0F88013D0B210BD7C
:1027E000521CD2B20B2AEBD31A46F7E77FB51C4630
:1027F000012501AE0023009586E80E0002232A463B
:10280000214600F0C7FC04B0002070BD7FB51D4616
:1028100090F81D33089C03B100240123CDE9003159
:10282000CDE9022402230022294600F0B3FC04B0C3
:10283000002070BD70B50446D0F87803C169204609
:102840004031FDF7DFFD050004D1D4F8C823022193
:1028500020469047284670BD70B50546D0F87803ED
:102860000026C469217839B1284600F01FF9217883
:10287000284600F0A3F92670217B39B1284600F0E4
:1028800015F9217B284600F099F92673617B39B14F
:10289000284600F00BF9617B284600F08FF966733B
:1028A000D5F87803C06920B101F0A6F9D5F878030E
:1028B000C661002070BDFEB50227054601233A46D9
:1028C000394600F059F90646FF287ED001462846D1
:1028D00000F0C7FD502001F02FFAD5F87813044618
:1028E000C86106EB860000EBC60005EB400090F8DF
:1028F0004A130A0603D56170B0F84C036081617811
:102900002846FFF759FF2070014695F81D0363899B
:1029100003228DE80D0095F81C336278284600F0FC
:102920004AFC21780022284600F012FC00231A46B7
:102930000A21284600F020F9FF2854D000EB80013E
:1029400001EBC00005EB400090F84A130A0604D5DD
:10295000E173B0F84C13618303E0A173B0F84C133A
:10296000218390F852130A0604D5E173B0F854039A
:10297000608303E0A173B0F854032083A17B284651
:10298000FFF71AFF6073E17B2846FFF715FF2073FE
:10299000208B95F81D1302260091CDE9016095F872
:1029A0001C33A27B617B284600F005FC608B95F808
:1029B0001D130091CDE9016095F81C33E27B217B6A
:1029C000284600F0F8FB002000E00CE084F84C0002
:1029D0000246617B284600F0BBFB217B0022284693
:1029E00000F0B6FB00273846FEBD70472DE9F041E8
:1029F0000546D0F8780301270026C4694FF0040883
:102A000094F84C0005284AD2DFE800F00305163B95
:102A10004200002743E02122A16C2A7420226A741C
:102A20006E82AE8207222846EA8200F062F848B938
:102A3000022084F84C0032E004F140012846FDF702
:102A4000E1FC20B101282AD084F84C8027E084F8EA
:102A50004C60A06C94F84410027991421FD194F814
:102A60004610827991421AD194F8451042799142E8
:102A700015D1216C0068814211D12846FFF7B5FFBE
:102A80000DE02846FDF75EFC2846FDF727FC06E032
:102A90000021284600F00FF808B984F84C60384649
:102AA000BDE8F081704700207047704710B500F016
:102AB00096FA002010BD8278012A07D10222027402
:102AC00001224274002242828182C2820022114687
:102AD00000F00FB87FB51C46012501AE002300951C
:102AE00086E80E002A46214600F054FB04B0002080
:102AF00070BD70B504460120A3780546012B0CD0AB
:102B0000022B09D1204600F014F9002158B1032806
:102B100009D0022800D1A57070BDA160A2812576E0
:102B20000221A17070BDA570217670BD7FB51D46D4
:102B300090F81D33089C03B100240123CDE9003136
:102B4000CDE9022400231A46294600F023FB04B0F5
:102B5000002070BD1FB500231446CDE900310822C6
:102B6000CDE902231A46214600F014FB04B00020F0
:102B700010BDFDF753BC000070B50546002005F5FB
:102B80004D7500BF00EB800404EBC00405EB44046A
:102B9000E67B0A348E4201D0FF2909D1A6799642FC
:102BA00001D0FF2A04D1E4799C4206D0FF2B04D047
:102BB000401CC0B20228E5D3FF2070BD0B2907D20C
:102BC00000EB8100B0F88013C1F30E01C0F8801350
:102BD0000020704730B48578029C012D0FD141F060
:102BE000800101740621417403214282B1EB122F4E
:102BF00002D140F2094100E000218182C4822246D4
:102C000030BC1946FFF775BF0A8803781A440A805A
:102C1000017808447047F8B50E4600F11C05009194
:102C200004462B464FF400720021FFF7D3FF070044
:102C300005D13246294604F54D7000F0C6FA3846F3
:102C4000F8BD38B50D460091044600F58E734FF47B
:102C500080720021FFF7BEFF002839D194F81C11C3
:102C600084F8221394F81D1184F82313B4F81E116C
:102C7000A4F8241394F8201184F8261394F8211151
:102C800084F8271394F8221184F8281394F8231158
:102C900084F82913082D1BD9B4F82411A4F82A1399
:102CA000B4F82611A4F82C13B4F82811A4F82E13A4
:102CB00094F82A1184F8301394F82B1184F8311306
:102CC00094F82C1184F8321394F82D1184F83313EE
:102CD00038BDF8B51C461646009341F4407200F525
:102CE0008E731D460021FFF775FF002814D1697807
:102CF000032911D129788A1EA24200D81446002146
:102D0000A2B2AD1C04E06B5C891C06F8013B89B2E1
:102D10009142F8D300213170F8BD01004FF000005E
:102D200004D0012901D0022901D0022070470120DE
:102D300070472DE9F84F04460125007E0B262F46EB
:102D40004FF009084FF007094FF0050B4FF00D0A3F
:102D50000C2819D2DFE800F0AF060E26313D49619C
:102D60006C7D8A9B627904F110012046FFF7F2FE28
:102D7000022012E06179204600F08DF9012804D08C
:102D8000042872D0022870D095E0207CE18A00F0FF
:102D9000800021B180283BD1032020768BE0802861
:102DA00014D02FE0D4F8BC03E0812379A289204617
:102DB000A168FFF78FFE0420EFE72179204600F09D
:102DC0006AF9012802D0052841D057E084F818801C
:102DD00071E000976379A2892046A168FFF7A6FEFB
:102DE000D4F8BC03E0810620D7E76179204600F0E3
:102DF00052F9012806D0052807D0022808D0042857
:102E000009D058E084F8189055E00C2020761EE098
:102E100084F818B04FE026764CE000222379114662
:102E20002046FFF757FED4F8BC03E0810820B4E742
:102E30002179204600F02FF9012804D0042824D05D
:102E4000052804D037E084F818A0002533E00325D6
:102E500031E000970022637911462046FFF766FEB5
:102E6000D4F8BC03E0810A2097E70EE061792046A0
:102E700000F011F9012804D00228A7D0042804D0BA
:102E800019E0002584F818A015E0267613E0607E8E
:102E9000401CC0B26076022805D8204600F071F9C7
:102EA0002776A77007E0D4F8C8230621204690476C
:102EB0000020607602252846BDE8F88FFEB504465E
:102EC000012640780025374604F58E7208286CD21A
:102ED000DFE800F004161D434A53576208212046DC
:102EE000FFF7AFFE002860D194F82903A071677046
:102EF00094F81D130091CDE9015094F81C3319E0AA
:102F000012212046FFF79DFE30BB022033E0012155
:102F1000204600F0B1FAF8B90220FFF72AFE84F843
:102F20001C7303206070A07994F81D13CDE900157F
:102F30003B46029021798022204600F03CF9A0799E
:102F400094F81D130091CDE9015094F81C33617978
:102F50000022204600F02FF927E009212046FFF744
:102F60005AFE10BB042006E0B4F836132046FFF7E3
:102F700052FED0B90520607017E094F83013062592
:102F800002E094F83113072521B1FF232046FFF713
:102F9000A0FE50B9657008E094F8321321B1FF2308
:102FA0002046FFF796FE00B900263046FEBD70B5FC
:102FB0000D46040011D084F8C0230020C4F8780323
:102FC000C4F87C032046FDF7F7F90DB1C4F8C853E7
:102FD000204600F073F8002070BD022070BD10B5CF
:102FE000D0F8C403FDF72FFBBDE81040FFF795BEF6
:102FF00010B5017821B190F81F13012909D00AE01A
:10300000012180F81E13D0F8C82322B10421904773
:1030100001E002210170002010BD10B5044600F04F
:10302000B0F821792046FFF7C9FD61792046FFF706
:10303000C5FD002084F81E03D4F8C82312B1052171
:1030400020469047204600F093F80320207000208F
:1030500010BD10B590F8C003012802D10846FFF753
:103060009BF8C820FDF7DAF9002010BDD0F8C403A2
:10307000FDF7E3BA10B50124D0F8C403FDF7D3FA85
:1030800020B1012805D0022803D101E0002400E08E
:103090000224204610BDD0F8C403FDF7C7BAD0F80B
:1030A000BC13491CC0F8BC1301780B2905D1D0F81A
:1030B0007813002901D089690847704710B5044684
:1030C00090F8C00301281CD10F484FF0A041002206
:1030D000C0F8C042C4F8C403016008218160012126
:1030E000C0E903120221C0E90612FDF7D8FB08B1BE
:1030F000FDF787F90448FDF793FA0146204600F0F2
:1031000024F8002010BD000040050020FEB508AFE7
:1031100097E870008DE87000D0F8C403FDF7A5FAB9
:10312000BDE8FE40FFF7F9BD002180F81F1370478E
:10313000012180F81F13704710B5D0F8C403FDF7C4
:1031400039FCBDE81040FFF7E8BDC0F8BC1370477C
:10315000D0F8C40301EB810100EBC10090F83B10F3
:1031600011B180F8502001E080F851200020704714
:1031700010B5D0F8C403FDF724FCBDE81040FFF7FC
:10318000CCBD10B5D0F8C403FDF731FCBDE810404C
:10319000FFF7C3BD2DE9FF410DF1280898E8F000C5
:1031A0008DE8F000D0F8C403FDF799FA04B0BDE84B
:1031B000F041FFF7B2BDFEB508AF97E870008DE8AB
:1031C0007000FFF7A3FF0020FEBD2DE9F841054682
:1031D0000B782B704B786B704B886B800B792B7155
:1031E0004B796B718B79AB71CB790846EB7100270A
:1031F000097A2972092A54D90921ADF800104BE047
:103200006946FFF701FD4178042943D107EB8701A7
:1032100001EBC70105EB4108017888F80A104178F5
:1032200088F80B10817888F80C10C17888F80D1098
:10323000017988F80E10417988F80F10817988F8A3
:103240001010C17908F10A0488F81110017A21726E
:10325000002615E06946FFF7D7FC417805290FD114
:1032600008EBC60102780A7542784A7582788A7539
:10327000C278CA7582880A838279761C8A76F6B209
:103280002179B14204D96A88BDF800108A42E1D898
:103290007F1CFFB2022F04D26988BDF80020914242
:1032A000AED8BDE8F881FEB5022204468DF80020B4
:1032B00094F81F13002031B9237823B12378032B0E
:1032C00001D0032323702378002508270D260C2B1B
:1032D00013D2DFE803F0061317ABB64694555C64CF
:1032E00071A494F81E03002807D001202070C82084
:1032F000FFF73FFC2046FFF71FFFA2E0012900D1A6
:1033000022709EE06420FFF734FC2046FFF7B2FEF7
:1033100084F81D030520207000212046FFF74CFA99
:10332000607180212046FFF747FA20710146A0799D
:1033300094F81D230092CDE9015094F81C338022AB
:103340002046FFF738FFA07994F81D130091CDE9CE
:10335000015094F81C33617900222046FFF72BFFBF
:103360006FE02046FFF7AAFD00286AD184F82053B9
:1033700094F83303012801D007204CE0277060E067
:10338000D4F8C823D2B3012120469047F6E794F839
:103390003913204600F07EF880BB09203BE094F80A
:1033A0003B034FF00A05800604D50121204600F0BA
:1033B0007FF818BB257044E0D4F87C13F1B1C4F851
:1033C000785394F8432304EB8001D1F874130B79FC
:1033D000934201D1C4F87813401C10F0FF00F2D0E2
:1033E000D4F87803C8B1816820468847A8B9062078
:1033F0002070D4F8C82303212046904721E0D4F858
:10340000780350B10169204688478DF800009DF887
:103410000000B0B90B20207013E0267011E0D4F842
:10342000780370B14169204688470AE02046FCF7DE
:10343000C3FFD4F8780320B1C16820468847C4F898
:1034400078530020FEBD002211B1D0F87C3313B1B7
:103450000222104670470123C0F87C33C0F8741371
:10346000F7E70246002092F838338B4202D982F8FF
:1034700020137047022070478278012A06D100226B
:1034800002740523437441828282C2820022114663
:10349000FFF72FBB8278012A06D10022027409238C
:1034A000437441828282C28200221146FFF721BB0F
:1034B0008278012A06D100220274032343744182D8
:1034C0008282C28200221146FFF713BB10B5044668
:1034D000FFF74EFE01212046FFF7BBFD002010BD87
:1034E00001290AD00548022906D0042903D005295C
:1034F00003D1032100E0012101707047000000208A
:1035000070B5044606990A9E049D0D98012916D0AF
:10351000E06840F04000E060204600F02BF8A16B2E
:103520001EB321F48031A163012D07D1A16841F0C0
:103530000601A160A16841F02001A16070BDA16BEE
:1035400021F48031A163E168094A1140E160E1683A
:1035500021F44011E160012803D1E06840F48010BB
:10356000E060204600F006F8DEE741F48031DAE75B
:10357000BFFFBDFF01220C4902E0521C8A420BD85A
:103580000369002BF9DA026942F0010202610122AB
:1035900004E0521C8A4201D9032070470369DB070B
:1035A000F7D1002070470000400D0300816821F032
:1035B000010181600020704700EB4110064AC0F80D
:1035C0001025D0F8001521F0804141F00041C0F8ED
:1035D00000150020704700000000088008B5D0F8F2
:1035E000402422F02E020092D20405D4012909D1F0
:1035F000009941F4805103E021B9009921F48051F0
:10360000C0F84014002008BD816841F001018160CC
:1036100000207047002110220261054A491C914296
:1036200001D9032070470369DB06F7D400207047F7
:10363000400D03000022202343EA81110161054966
:10364000521C8A4201D90320704703699B06F7D4B4
:1036500000207047400D0300D0F8080480B2704786
:1036600008B5D0F840040090C0F3414008BD40695F
:1036700000F00100704700EB4111D1F800254FF434
:103680007A73C2F381426AB1022A0BD0D1F80025C5
:1036900042F08042C1F80025D0F8100410F47F0FEA
:1036A0002ED009E0D1F8002542F08042C1F8002573
:1036B000C06A10F47F0F07D0D1F8000540F0004039
:1036C000C1F8000500207047D1F8000520F0004047
:1036D000C1F80005D1F8000540F00040C1F8000530
:1036E000D1F8000520F40040C1F80005012002E0F7
:1036F000401C9842E6D8D1F80025002AF8DBE1E723
:10370000D1F8000520F00040C1F80005D1F800050F
:1037100040F00040C1F80005D1F8000520F4004059
:10372000C1F80005012002E0401C9842CAD8D1F837
:103730000025002AF8DBC5E72DE9F0430026DDE986
:10374000078500EB4114771EDDF82490C4F8087556
:10375000CDB1012D32D0022D15D0032D27D0012659
:10376000D0F8187401F00F0C012101FA0CF10F438D
:10377000C0F81874816941F00071816110062AD582
:103780004FF4004028E040F29D47C4F80C7517063E
:1037900005D500BFD4F80C7547F4807718E0C76BE7
:1037A000FF05DDD5D4F80C7547F0600710E040F256
:1037B0009D67C4F80C751706ECD4D1E740F22527B5
:1037C000C4F80C751706CBD5D4F80C7547F4C07740
:1037D000C4F80C75C4E70020B8F1020F18D000211E
:1037E0004FF0FE5707EA83534FF4F04707EAC2222F
:1037F00013434FF4402202EA85421343C9F30A02FD
:10380000134303430B43C4F80035032D03D008E0F2
:103810004FF40031E4E7D4F8000540F00050C4F85C
:1038200000053046BDE8F083D0F8140480B270473C
:10383000F8B54C78C56B4FF48073ED054FF0000779
:1038400015D50D799DB912B1012A07D00FE04D7938
:10385000012D0CD12146FFF7AFFE8CE000EB4415A3
:10386000D5F80C6526F06006C5F80C654F710E6939
:103870005EB10D892E44761EB6FBF5F6B6B29E42B9
:1038800004D91E462B020B6100E00126CB78CBB396
:103890000B897343C1F810306FF06045C3F3120316
:1038A00005EAC6452B438D7A4FF0C04606EA4575BA
:1038B0002B4300EB44140546C4F8103512B1CB6815
:1038C000C4F81435D5F80834D4F8005543F3000390
:1038D00025F00055C4F80055D4F800555B1C45EAA6
:1038E0004373C4F80035D4F80055244B1D601D689F
:1038F00025F080451D60CD78002D1D6805D045F46C
:10390000004504E0FFE70B69C6E725F400451D60AC
:103910001D6845F000451D601B68C4F8003552BBAA
:10392000CA7842BB0A6932B3CB7933B1012B0FD0CD
:10393000022B02D0032B17D10AE0D21CC36AC2F3B8
:103940008F029BB293420FD2826942F020020AE0BA
:10395000D21CD0F81034C2F38F029BB2934203D230
:10396000826942F08062826100970A8A93B24A7843
:10397000C96800F00EF90020F8BD00000400002026
:103980002DE9F0410025DDF8188017460446C0F8FF
:10399000005E806B40F40010A063A06B20F4002058
:1039A000A063A06B20F48020A063E06BC00501D56C
:1039B000032B04D0D4F8000420F0040103E0D4F871
:1039C000000440F004012046C4F800141021FFF761
:1039D00031FE2046FFF71EFE0020461E07E000BF16
:1039E00004EB4011C1F80865C1F80C55401C874232
:1039F000F6D801212046FFF7F1FDC820FCF70EFDA7
:103A0000A5616661E06BC00506D54FF40070606289
:103A10000C48A0620C4804E0802060620B48A06261
:103A20000B48C4F80001B8F1000F03D1A06940F0C1
:103A30001000A061A06907490843A0610020BDE80B
:103A4000F0810000000200010003E000800060003F
:103A5000E0004000080020A3D0F8002422F0030278
:103A6000C0F80024D0F8002401F003031A43C0F882
:103A70000024012902D0022903D006E04BF6803150
:103A800001E041F27071C0F80414002070474169F0
:103A9000806908407047D21C10B59308002200F5D9
:103AA000805002E00468521C10C19A42FAD30846C2
:103AB00010BD38B50446D0F8400420F02E00009028
:103AC00040F48070C4F84004642004F58864FCF776
:103AD000A5FC009820F4807020600A20FCF79EFC72
:103AE000002038BD10B5C26822F0C042C260012972
:103AF00002D029B1012010BDC16841F0005102E09F
:103B0000C16841F08041C1603220FCF787FC002091
:103B100010BD000030B504468068002520F001008B
:103B2000A06010212046FFF785FD2046FFF772FDBB
:103B30005FF0000004EB4011D1F8002522F0802254
:103B400042F08042C1F80025401C0F28F2D9002025
:103B50004FF47A7304EB4011D1F8002522F40042AF
:103B600042F04042C1F800256D1C9D4203D8D1F8B7
:103B70000025002AF8DB401C0F28EBD94FF0FF305E
:103B8000C4F814046061A06840F00100A060002047
:103B900030BD10B5029C64B9DB1C9C0800EB023000
:103BA000002300F5805002E004C902605B1CA342C0
:103BB000FAD3002010BDFEE70907090E002804DB38
:103BC00000F1E02080F80014704700F00F0000F1D1
:103BD000E02080F8141D704702E008C8121F08C1D9
:103BE000002AFAD170477047002001E001C1121F7E
:103BF000002AFBD17047000010B5002821D0114BDE
:103C00000022001F196803E0814203D80A46496870
:103C10000029F9D152B11368841A9C4204D100687A
:103C200018441060104602E0506000E0186039B19E
:103C300002680B1A934203D10B681A440260496868
:103C4000416010BD3800002088B0FCF7DBFC054661
:103C500072208DF81800FDF7D5F9FEF7ADFBFEF7E1
:103C6000A5FA2E492C48002408602D48C1E901041A
:103C70004FF48040C1E903404C618C61CC6108463F
:103C80000C62FCF7C7FE25492648543108604015F0
:103C9000C1E90104C1E903402348C1E90504CC613D
:103CA00008460C62FDF7A2F8FEF73AFB1B481F49D5
:103CB000F43001604FF41651C0E901140C21C460C6
:103CC000C0E904418461C461FDF7FAFDFEF742FBDF
:103CD000042217496846FCF7FAFA4FF40054154ECF
:103CE000FEF758FBFCF78EFCA84206D00B480A23CF
:103CF000012206A9F430FDF749FEBDF80410009832
:103D0000FCF776FC012805D0002221463046FCF75E
:103D100074FCE5E70122F8E7005400404000002071
:103D2000A0860100003C00400077010000440040F4
:103D300000100240000C0240F0B50B30154D20F091
:103D400007010024144A0FE003688B420BD38B4217
:103D500005D95E1A43184768C3E9006700E0436865
:103D6000136002C004E0021D10680028ECD1204658
:103D7000002802D1286808B10020F0BD064A074893
:103D80001060074A121A22F00702C0E9002401203D
:103D90002860D7E73C000020380000200C080020F5
:103DA000080A0020000000000000000001020304D7
:103DB0000607080900000000010203044344430011
:103DC000E03D00080000002040000000D83B000853
:103DD000203E000840000020C80D0000E83B00081D
:103DE00000000000000000000100000010000000C2
:103DF000000000000024F400BC3D000802000000A8
:103E0000B72800085928000835280008ED290008BF
:103E1000A72A0008000000000000000000000000C9
:040000050800018965
:00000001FF
