:020000040800F2
:10000000D00800209D0100088725000881200008F5
:1000100085250008A9020008372E0008000000000E
:10002000000000000000000000000000E5250008BE
:10003000010300080000000095250008E7250008DE
:10004000B7010008B7010008B7010008B7010008B0
:10005000B7010008B7010008B7010008B7010008A0
:10006000B7010008B7010008B7010008B701000890
:10007000B7010008B7010008B7010008B701000880
:10008000B7010008B7010008B7010008B701000870
:10009000B7010008B7010008B7010008B701000860
:1000A000B7010008B7010008B7010008B701000850
:1000B000B7010008DD260008B7010008B7010008F5
:1000C000B7010008B7010008B7010008B701000830
:1000D000B7010008B7010008B7010008B701000820
:1000E000B7010008B7010008B7010008B701000810
:1000F000B7010008B7010008B7010008B701000800
:10010000B7010008B7010008B7010008B7010008EF
:10011000B7010008B7010008B7010008B7010008DF
:10012000B7010008B7010008B7010008B7010008CF
:10013000B7010008B7010008B7010008B7010008BF
:10014000B7010008B7010008B701000889250008B9
:10015000B7010008B7010008B7010008B70100089F
:10016000B7010008B7010008B7010008B70100088F
:10017000B7010008B7010008B7010008000000003F
:10018000B7010008B7010008DFF80CD000F07AF8DA
:1001900000480047792E0008D00800200648804714
:1001A00006480047FEE7FEE7FEE7FEE7FEE7FEE75C
:1001B000FEE7FEE7FEE7FEE7892600088901000862
:1001C0002DE9F05F0546002092469B46884606468C
:1001D000814640241BE0284641464746224600F01F
:1001E00041F853465A46C01A914110D31146184659
:1001F000224600F028F82D1A67EB01084F462246E8
:100200000120002100F01FF817EB00094E41201ECD
:10021000A4F10104DFDC484631462A464346BDE8E6
:10022000F09FD2B201E000F8012B491EFBD27047CB
:100230000022F6E710B513460A4604461946FFF7B2
:10024000F0FF204610BD202A04DB203A00FA02F11C
:10025000002070479140C2F1200320FA03F31943B4
:1002600090407047202A04DB203A21FA02F0002156
:10027000704721FA02F3D040C2F1200291400843B6
:1002800019467047064C074D06E0E06840F0010350
:1002900094E8070098471034AC42F6D3FFF778FF94
:1002A000342F0008542F0008FEE7000000EB400345
:1002B000054840F8331000EBC30000218280C0E9FC
:1002C00002110174704700003800002010B50B4C7B
:1002D000042221460020FFF7E9FF102221460120D9
:1002E000FFF7E4FF202221460220FFF7DFFF21462F
:1002F0004022BDE810400320FFF7D8BF00100240A5
:100300007047000010B5094B00214A0601EB41047B
:10031000120E03EBC4044254247C012C02D142F09F
:1003200001024254491C0429EFDB10BD38000020B3
:10033000704700002DE9F84FDFF87CB100224FF044
:1003400001084FF0030A4FF00F090BF1040E00BF34
:100350000B6808FA02F42340A3426ED14D68022DC7
:1003600001D0122D0ED1D50800EB850CDCF8205001
:100370005607F70E09FA07F6B5430E69BE402E433D
:10038000CCF82060066855000F790AFA05FC07F0E2
:10039000030726EA0C06AF40374307604E68012E7C
:1003A00005D0022E03D0112E01D0122E0ED1866858
:1003B000CF6826EA0C06AF40374387604668A643FD
:1003C0000C79C4F30014944034434460C6688C68CC
:1003D00026EA0C06AC403443C4604C68E40065D5A2
:1003E000364C256845F480452560246822F00305D5
:1003F00004F480440094324C2E19D6F8084895072E
:100400002F0F09FA07F5AC432E4DA84201D1002564
:1004100024E02D4DA84201D101251FE02B4DA8421B
:1004200001D102251AE02A4DA84201D1032515E089
:10043000284DA84202D1042510E037E0264DA842FD
:1004400001D105250AE0254DA84201D1062505E088
:10045000234DA84201D1072500E00825BD402543D2
:10046000C6F80858DBF800405D464E689C43F6032A
:1004700000D51C432C60DEF8004075464E689C4356
:10048000B60300D51C432C600B4D08352C684E6814
:100490009C43F60200D51C432C60074D0C352C689C
:1004A0004E689C43B60200D51C432C60521C102A97
:1004B000FFF44EAFBDE8F88F003C014044380240E5
:1004C00000300140000002400004024000080240E9
:1004D000000C0240001002400014024000180240CC
:1004E000001C02400069084000D0012070470AB19A
:1004F000816170470904FBE701488068704700008C
:1005000028000020D0F8C00202F028BBD0F8C002BA
:1005100002F039BB704700002DE9F0410446006845
:10052000064602F0B3FB01286FD1206802F032FCCE
:1005300000286AD0206802F02DFC800203D52168D3
:100540004FF400104861206802F024FCC00203D57B
:1005500021684FF480104861206802F01BFC4001C4
:1005600003D521684FF080604861206802F012FCDA
:10057000800702D5216802204861206802F00AFC49
:10058000800010D5D6F8400420F02E00C6F84004B4
:100590002046FFF7BBFF0121206802F0E0FB216845
:1005A0004FF000504861206802F0F4FBC00102D512
:1005B000204601F0D0FC206802F0ECFB000705D5D6
:1005C000204600F04AF8216808204861206802F0BF
:1005D000E1FB800124D5206802F0BDFB0746002521
:1005E0004FF0010815E000BF05F00F0108FA01F017
:1005F00038420DD006EB4510D0F80005E9B20004F2
:10060000204603D501F06FFA02E01CE001F081FB07
:100610006D1CA068A842E7D821684FF000704861BF
:10062000206802F0B7FBC043C0060CD42068816983
:1006300021F010018161204601F0EAFC2068816907
:1006400041F010018161BDE8F081D0F8C00202F0F4
:10065000C5BAD0F8C00202F0C5BAD0F8C00202F0A4
:10066000AEBA10B5044690F8B80201280DD00120AA
:1006700084F8B802206802F0E1FA0121206802F053
:10068000C7FA002084F8B80210BD022010BD10B5D2
:10069000044690F8B802012809D0012084F8B80275
:1006A000206802F089FB002084F8B80210BD022007
:1006B00010BD000070B504001BD094F83D0000256B
:1006C00020B984F83C50204600F0AEF8242084F88D
:1006D0003D002068016821F00101016000F0DAFCB2
:1006E0004D4A6168914201D84C4900E04C4988422A
:1006F00001D2012070BD4B492368B0FBF1F15E6867
:1007000026F03F060E435E606368934206D94FF4BD
:10071000967359434FF47A73B1FBF3F12368491C84
:100720001E6A26F03F06314319626168914210D873
:100730004900401EB0FBF1F2521CC2F30B02042A26
:1007400001D2042022E0B0FBF1F0401CC0F30B000A
:100750001CE0A368F3B301EBC10202EB0116421ED9
:10076000B2FBF6F2521C42F48042120549D093B318
:1007700001EBC10202EB0111401EB0FBF1F0401C85
:10078000C0F30B0040F4804040F400402168CA6987
:100790004CF6FF739A431043C861D4E9070108433C
:1007A00021680A6822F0C00210430860D4E90301FE
:1007B00001432068826848F2FF339A431143816005
:1007C000D4E9050108432168CA6822F0FF021043FA
:1007D000C86001E00EE016E02068016841F0010108
:1007E00001602564202084F83D00256384F83E5094
:1007F000002070BD01EB4106421EB2FBF6F2521C16
:10080000B3E70120C2E701EB4101401EB0FBF1F06C
:10081000401CC0F30B00B7E7A086010080841E00D7
:1008200000093D0040420F0010B586B00446142177
:100830006846FFF7FDFC14492068884221D113481F
:100840000021026842F002020260006800F002002B
:1008500005904FF410700090122001900120CDE916
:1008600002010420049069460948FFF763FD074828
:100870001030016841F400110160006800F40010BC
:10088000059006B010BD0000005400403038024012
:10089000000402402DE9FF41044600688168009190
:1008A0007749784E4FF04027884201D1324600E028
:1008B0003A469268019240688846029001D13046DB
:1008C00000E038464068039060684FF00105B0F5DD
:1008D000007F1CD0D8B1900705D50398000602D53B
:1008E000204601F0FFFB0098C0070FD00298400699
:1008F0007FD521682046CA68E16A8B1CE3620A80C2
:10090000618E491E6186618E002967D071E0009872
:10091000800719D50298000616D5616A20468A1C00
:10092000626222680988D160618D491E6185618D8E
:1009300051B901684A6822F0A0024A60418E19B993
:1009400080F8415000F0A0F80198C00705D0039846
:10095000400602D5204601F095FB0198400622D5BD
:10096000039880061FD52168414501D1304600E03B
:100970003846406820F0600101D1304600E038463A
:1009800041602068416821F0A00141602068C16891
:100990008068019084F84150606C40F0020060640F
:1009A000204600F072F80098000767D5029880068C
:1009B00064D52068416821F0A0014160216841456B
:1009C00001D1304600E03846406820F0600000D099
:1009D0003E46706020688068009043E001684A6885
:1009E00022F060024A60418D19B980F8415000F050
:1009F0004BF8009840061ED5029880061BD520684B
:100A0000416821F0600141602168414501D13046D3
:100A100000E03846406820F0A00101D1304600E0F7
:100A20003846416084F84150606C40F002006064D8
:100A3000204600F02AF8019800071FD50398800689
:100A40001CD52168414501D1304600E03846406858
:100A500020F0A00000D03E4670602068416821F080
:100A60006001416084F84150606C40F004006064B3
:100A700004B02046BDE8F04100F007B8BDE8FF81B2
:100A80000038004000340040704770472DE9F047BF
:100A9000040005D094F841004FF0000818B109E0B7
:100AA0000120BDE8F08784F840805148606320460B
:100AB00000F0A6F8022684F841602068C16940F67B
:100AC000BF77B943C1612068066260694FF400795D
:100AD00002282FD0E06870B12025A068202800D817
:100AE0006D00012000F072F9216949451FD1E168CC
:100AF00019B1A90002E01025EFE7E900B0FBF1F021
:100B000000EB800061694000B0FBF1F0401D0A215C
:100B1000B0FBF1F000F00101401A40080902821E0A
:100B2000FE2A09D3606C40F010006064B8E7B0FBA7
:100B3000F5F0E5E70220002122690843024320681E
:100B40000262D4E901010843A269E1681143084344
:100B50002168CA69BA43104340F40060C861206A42
:100B600001283AD12348606323482168234A4FF083
:100B70004023814201D1114600E01946C96921EAAA
:100B8000070101D1154600E01D46E9612168814257
:100B900001D1114600E019460E622568854201D157
:100BA000114600E01946C9698EB2616849451BD0FB
:100BB000D1B100212789B4F80CC047EA0C07B4F87A
:100BC00018C04CEA010C47EA0C07B9B2314341F4B2
:100BD0000061854200D01A46D161C4F844800120EA
:100BE00084F8410000205CE74FF48071E2E70000E8
:100BF00045210008950800080038004000340040F6
:100C000070B586B0044614216846FFF711FB1C49F5
:100C10002068884232D11B480024016841F4004119
:100C20000160006800F40040059016481038016823
:100C300041F001010160016801F0010105910168C5
:100C400041F0040101600068022500F004000590F5
:100C500010200090CDE901540626CDE903466946EF
:100C60000948FFF767FB4FF4A4500090CDE9015409
:100C7000CDE9034669460548FFF75CFB06B070BD49
:100C8000003C0040403802400000024000080240A2
:100C9000704770470248816802781144816070474C
:100CA000280000200B4810B5016841F40071016074
:100CB000016841F480610160016841F48071016064
:100CC000032000F071F8002000F006F800F024F88E
:100CD000002010BD003C024070B50D4D04464FF49D
:100CE0007A712878B1FBF0F00A490968B1FBF0F09D
:100CF00000F022FC48B9102C07D200222146501ED9
:100D000000F032F800206C6070BD012070BD000062
:100D100028000020340000200B4882B0016841F414
:100D200080410160006800F4804000900648001F88
:100D3000016841F080510160006800F0805000902F
:100D4000072002B000F030B844380240002809DB28
:100D500000F01F02012191404009800000F1E020D5
:100D6000C0F8001170470000F0B40E4B1B680C4631
:100D7000C3F30223C3F10705042D00D90425191D6F
:100D8000072901D2002300E0DB1E012606FA05F147
:100D9000491E214099409E40761E16403143F0BCCA
:100DA00002F04AB80CED00E0064900F007020868BE
:100DB0004FF6FF03184040EA0220034A1043086040
:100DC000704700000CED00E00000FA05014600202D
:100DD000012907D11049096811F4000103D0012944
:100DE00000D10E4870470C48001F01680068490296
:100DF00000F03F0001D50A4900E00A49064AB1FB6C
:100E0000F0F07C321168C1F3881141431068C0F3DF
:100E10000270B1FBF0F07047083802400080BB0060
:100E200000127A000024F4002DE9F843054600681A
:100E30004FF00109C1074FF0000601D1400727D547
:100E4000DFF80C81C8F86860FFF756FB0746414C95
:100E500005E000BFFFF750FBC01B022857D82068F1
:100E60000001F7D468688101287A41EA00703949A5
:100E700084310860C8F86890FFF73EFB074604E03D
:100E8000FFF73AFBC01B022841D820680001F7D5C4
:100E90002878800752D52F484030016841F08051B2
:100EA000016000682C4C00F080500090206840F4F5
:100EB00080702060FFF720FB074604E0FFF71CFB73
:100EC000C01B022823D82068C005F7D5214C7034F8
:100ED000206810F4407020D0A98901F4407181424B
:100EE0001BD020681D4920F44070C1F800900E60AE
:100EF00020602068C00710D0FFF7FEFA064641F2D6
:100F0000883707E0FFF7F8FA801BB84202D90320C0
:100F1000BDE8F88320688007F4D5E9680D48C1F37F
:100F200001220830032A0BD0016821F4F811016076
:100F30002068A989C1F30B01084320600020E7E77E
:100F40000268074B22F4F81219400A430260EFE7E7
:100F5000000047420038024000700040400E474207
:100F6000FFFCFF0F2DE9F0470E46050065D0DFF8C6
:100F70001481D8F80000F7B200F00F00B04207D299
:100F800088F80070D8F8000000F00F00B04254D18B
:100F900028683D4C810712D5400703D5206840F4EE
:100FA000E05020602878000703D5206840F46040B6
:100FB00020602068A96820F0F000084320602878AD
:100FC000C0072DD0304968680839012812D002289E
:100FD00013D0032811D00968890700292DDA216868
:100FE00021F0030101432160FFF786FA814641F2B7
:100FF000883A0EE009688903EFE709688901ECE7A0
:10100000FFF77AFAA0EB0901514502D90320BDE8A8
:10101000F0872068696800F00C00B0EB810FEFD119
:10102000D8F80010404601F00F01B14207D907700F
:10103000006800F00F00B04201D00120E7E72878F7
:10104000400705D52068E96820F4E0500843206097
:101050002878000706D52068296920F4604040EA16
:10106000C100206000F036F82168084AC1F303117E
:10107000515CC840064908600020FFF72DFE0020A3
:10108000C5E70000003C0240083802401C2F000861
:10109000340000200448054900680968044AC1F387
:1010A0008221515CC840704734000020083802405B
:1010B0002C2F00080448054900680968044AC1F358
:1010C0004231515CC840704734000020083802406B
:1010D0002C2F0008154810B5006810F00C021448B9
:1010E00013D04110042A0FD0082A0ED10F4C241F10
:1010F0002268236802F03F025B0207D52068C0F334
:101100008810A0FB010106E0084610BD2168C1F36C
:101110008811A1FB00010023FFF752F82168C1F3F9
:101120000141491C4900B0FBF1F010BD08380240F4
:101130000024F4002DE9F84F050076D02878DFF878
:10114000F8B2BE4CC00749D0DBF800105846C1F3D6
:101150008101012908D00068C0F3810002280AD16A
:10116000201D0068400206D52068800336D56868D7
:101170000028E2D032E06868B0F5803F10D0B0F5CA
:10118000A02F206810D020F480302060206820F448
:10119000802020606868A0B1FFF7AEF906460CE039
:1011A000206840F48030F4E740F480202060F7E7C6
:1011B000FFF7A2F9801B642873D820688003F7D555
:1011C0000CE0FFF799F9064605E000BFFFF794F938
:1011D000801B6428F0D820688003F7D42878DFF8D3
:1011E000608280074FF000093ED5DBF800105846BA
:1011F00011F00C0F09D00068C0F3810002280BD158
:101200008D48001F0068400206D42068800715D56D
:10121000E868012809D111E0E868B8B10120C8F8F0
:101220000000FFF769F9064605E002E1FFF764F9FF
:10123000801B0228C0D820688007F7D5206829695C
:1012400020F0F80040EAC10020600DE0C8F80090EE
:10125000FFF752F9064604E0FFF74EF9801B02281B
:101260001FD820688007F7D42878000722D5724E4F
:10127000744869696C3671B101210160FFF73CF96E
:10128000074604E0FFF738F9C01B022809D8306888
:101290008007F7D50EE0C0F80090FFF72DF907465C
:1012A00005E083E0FFF728F9C01B02287ED83068EC
:1012B0008007F7D42878400768D5DFF87CA100279D
:1012C0000AF1380ADAF80000C0000BD4DAF800108E
:1012D00041F08051CAF80010DAF80000012700F050
:1012E00080500090584E3068C00510D4306840F4EB
:1012F00080703060FFF700F9009005E0FFF7FCF820
:101300000099401A022851D83068C005F6D54A4ED7
:10131000A868683601280FD00528306810D020F062
:1013200001003060306820F004003060A868B8B177
:10133000FFF7E2F800900FE0306840F00100F4E7BA
:1013400040F004003060F7E7FFF7D6F80099411A43
:1013500041F28830814264D830688007F4D50EE0CD
:10136000FFF7CAF8009007E0FFF7C6F80099411AA6
:1013700041F28830814254D830688007F4D42FB1CC
:10138000DAF8001021F08051CAF80010A869C0B343
:10139000DBF80010C1F3810102294AD00228484637
:1013A00007D0C8F86000FFF7A7F800E039E005466D
:1013B0003AE04746C8F86000FFF79EF8064604E0AA
:1013C000FFF79AF8801B02282BD820688001F7D4F9
:1013D000D5E907010843A96A1C4A490802EB014103
:1013E0006A6A41EA8211084395F82C1040EA0161CB
:1013F0001148001F016001203866FFF77DF805469F
:1014000005E014E0FFF778F8401B022809D82068AF
:101410008001F7D50BE000BFFFF76EF8401B0228F4
:1014200002D90320BDE8F88F20688001F4D40020A1
:10143000F8E70120F6E700000838024000380240D3
:1014400000004742800E4742007000400000FFFF4E
:1014500070B5040005D00025A56294F8510010B1C4
:1014600006E0012070BD84F85050204600F030F8AE
:10147000022084F851002068016821F040010160D9
:10148000D4E901010843D4E9031211430843616917
:101490000843218B01F400710843E1690843216A84
:1014A0000843A16A084321680860A069042101EA91
:1014B0001040616A0843216848602068C16921F4CE
:1014C0000061C1616565012084F85100002070BD94
:1014D00010B586B0044614216846FEF7A9FE1349EC
:1014E000206888421FD112480021026842F48052CD
:1014F0000260006800F4805005900D4814380268BE
:1015000042F001020260006800F001000590E02056
:1015100000900220CDE901010520CDE903106946C4
:101520000448FEF707FF06B010BD00000030014080
:10153000443802400000024010B5401EB0F1807FE8
:1015400001D3012010BD4FF0E02460610F2160172E
:1015500001F072FC0020A06107202061002010BD76
:101560007047704770B590F83C20012A19D00124CB
:1015700000F83C4F0222427050F83C3C5A689D688B
:1015800022F070060A684968324325F08005294335
:101590005A6050F83C2C916044700021017008465C
:1015A00070BD022070BD10B5040003D094F83D005A
:1015B00010B107E0012010BD002084F83C00204657
:1015C00000F00CF8022084F83D00211D206801F095
:1015D0008BF8012084F83D00002010BD08B500689C
:1015E0000B49884212D10B48016841F002010160A9
:1015F0000068002200F00200009011461D20FFF755
:10160000B3FBBDE808401D20FFF7A0BB08BD0000EC
:1016100000040040403802400168CA6842F00102FC
:10162000CA600068816801F00701062903D00168DB
:1016300041F0010101600020704770B5044690F848
:101640003C00012817D0012584F83C50022084F882
:101650003D002068826822F0770222F47F42826097
:101660000868502830D00DDC20284DD005DC98B318
:1016700010283BD148E0022070BD302844D04028DB
:1016800034D139E0602828D0702806D0B0F5805FCA
:101690002CD0B0F5005F29D10AE0CB68D1E9012157
:1016A000206801F085F82068816841F0770109E041
:1016B000CB68D1E90121206801F07AF820688168BF
:1016C00041F48041816011E0CA684968206801F0F6
:1016D00081F85021206807E016E0CA684968206850
:1016E00001F089F86021206801F06CF884F83D5021
:1016F000002084F83C0070BDCA684968206801F089
:1017000069F840212068EFE7226801461046EBE7C0
:10171000704770B50446006801694FF00005C94381
:10172000890715D4C168C943890711D4E91E01612D
:1017300001202077206880698007204602D0FFF7CB
:10174000E7FF04E000F098F8204600F096F82577CF
:1017500020680169C943490717D4C168C9434907CB
:1017600013D46FF0040101610220207720688069A2
:1017700010F4407F204602D0FFF7CAFF04E000F0DB
:101780007BF8204600F079F8257720680169C94385
:10179000090716D4C168C943090712D46FF00801BC
:1017A0000161042020772068C0698007204602D0AC
:1017B000FFF7AEFF04E000F05FF8204600F05DF8B0
:1017C000257720680169C943C90617D4C168C94390
:1017D000C90613D46FF0100101610820207720683A
:1017E000C06910F4407F204602D0FFF791FF04E06B
:1017F00000F042F8204600F040F8257720680169A3
:10180000C943C90708D1C168C943C90704D1891EA2
:101810000161204600F032F820680169C9430906D9
:1018200009D4C168C943090605D46FF0800101617C
:101830002046FFF795FE20680169C943490609D48F
:10184000C168C943490605D46FF0400101612046D3
:1018500000F086F820680169C94389060BD4C16885
:10186000C943890607D46FF0200101612046BDE815
:101870007040FFF776BE70BD704770472DE9F047A6
:1018800000683449884233D1334C2078DFF8CC905B
:1018900001264FF40058002570B1606AE060C4E989
:1018A0000160E5612562A561C4E904560122414653
:1018B0004846FEF71CFE2570606870B3A069401CA6
:1018C000A061207AC00701D0142700E00A276069D0
:1018D00008B1012200E0002241464846FEF707FE1B
:1018E00060690028A06905D0B84201D16561A56191
:1018F000BDE8F087B842FBD1A5612069401CC4E96E
:101900000406A1684910A1600328F1D12561656032
:10191000E069052802DA2662EAE701E0256217E0BD
:10192000206A78B16561A069401CA0616428DFD19C
:10193000666166602562E068A060E069401CC4E9F9
:101940000650D5E7002241464846FEF7D0FD6560C7
:10195000E561CDE7000400400000002000080240DF
:10196000704770B5040004D094F83900002510B118
:1019700006E0012070BD84F83850204600F022F8BF
:10198000242084F839002068C16821F40051C16026
:10199000204600F043FF2068016921F49041016175
:1019A0002068416921F02A0141612068C16841F441
:1019B0000051C160E563202084F8390084F83A00C2
:1019C000002070BD10B586B0044614216846FEF7AD
:1019D0002FFC13492068884220D11248016841F445
:1019E00000310160006800F4003005900D481038A7
:1019F000016841F0010101600068694600F00100E2
:101A000005900C20009002200190012002900320FC
:101A10000390072004900448FEF78CFC06B010BD2C
:101A20000044004040380240000002402DE9F843E5
:101A3000044690F839001F4616460D46202850D11E
:101A4000A5B19EB194F8380001284AD0012084F84D
:101A500038004FF00008C4F83C80212084F8390099
:101A6000FEF74AFDA6848146E68426E00120BDE813
:101A7000F883E08C401EE084A0684B46B0F5805FA0
:101A80004FF000024FF080012046009703D001F094
:101A90001BF8E8B90DE001F017F8C8B928882168EB
:101AA000C0F308004860206908B16D1C05E0AD1C5A
:101AB00003E0216815F8010B4860E08C0028D8D1BC
:101AC0004B46002240212046009700F0FDFF08B160
:101AD0000320CCE7202084F8390084F838800020E7
:101AE000C5E70220C3E72DE9F05F074600680E4610
:101AF00000EB4114D4F808054FF0040B420701EB4A
:101B000086004FF0050A4FF0100807EBC00508D516
:101B1000C4F808B5D4F80C0540F00200C4F80C0570
:101B200030E0D4F80805800601D5202028E0D4F85C
:101B300008054FF0080900070FD5D4F80C0540F050
:101B40000200C4F80C0585F85DA0C4F80885C4F847
:101B50000895386801F09EF814E0D4F808054005AF
:101B600010D5D4F80C0540F00200C4F80C05386814
:101B700001F090F8C4F8088585F85D904FF4806016
:101B8000C4F80805D4F8080580050ED5D4F80C056E
:101B900040F00200C4F80C05314604F5A164386831
:101BA00001F078F84FF4007090E0D4F808054FF099
:101BB0000001C0074FF0010237D0386930B1A86C7E
:101BC000D4F81035C3F31203C01AE86485F85D2019
:101BD000A965C4F8082595F83F0020B1022802D075
:101BE00003280FD01AE0D4F80C0540F00200C4F826
:101BF0000C05314604F5A164386801F04BF8C4F8CF
:101C000000800BE0D4F8000540F00050C4F8000557
:101C100085F85C2031463846FEF77CFC15F8500FFD
:101C200080F001002870BDE8F09FD4F80805800717
:101C300035D5D4F80C0520F00200C4F80C0595F851
:101C40005D000223012808D0052809D006280AD003
:101C5000082808D003281FD015E085F85C2012E082
:101C600085F85CA00FE0A86D401CA865032813D977
:101C7000A96585F85CB0D4F8000520F0804040F0FC
:101C80000040C4F80005C4F8083595F85C203146DA
:101C90003846FEF73FFCC6E785F85C30EBE7D4F842
:101CA0000805000614D5D4F80C0540F00200C4F86D
:101CB0000C05A86D3146401CA865062085F85D001E
:101CC00004F5A164386800F0E5FF80202060AAE7F1
:101CD000D4F80805C006A6D595F83F00032803D020
:101CE00020B1022802D011E0A96505E0A965386994
:101CF00060B9032085F85D00D4F80C0540F00200BF
:101D0000C4F80C053146386800F0C4FFC4F80885F3
:101D100089E72DE9F047026802EB4114D4F8082561
:101D20004FF00403520709D5C4F80835D4F80C0560
:101D300040F00200C4F80C05BDE8F087D4F808258F
:101D400001EB810596064FF0000200EBC5054FF050
:101D5000020C15D52023C4F8083595F83D30012B29
:101D6000EAD185F83D2085F85CC0D4F80C2542F016
:101D70000202C4F80C250068BDE8F04700F08ABFF5
:101D8000D4F8086577064FF0010611D585F85D3067
:101D900085F83D60AA65D4F80C2542F00202C4F82B
:101DA0000C25006804F5A16400F074FF402010E0E9
:101DB000D4F80875BF050ED5D4F80C2542F0020200
:101DC000C4F80C25006804F5A16400F063FF4FF42B
:101DD00000702060B0E7D4F80875FF070FD0AA653F
:101DE000D4F80C2542F00202C4F80C25006804F572
:101DF000A16400F04FFF266085F85D609CE7D4F891
:101E000008754FF005095FEA07784FF008070DD510
:101E1000C4F80875D4F80C2542F00202C4F80C2569
:101E2000006800F037FF85F85D9085E7D4F80885F5
:101E30004FF0100A5FEAC86818D5AA65032285F832
:101E40005D2095F83D2022B995F83C200AB985F827
:101E50003D60D4F80C2542F00202C4F80C2500685D
:101E600004F5A16400F016FF5046B2E7D4F80885E7
:101E70005FEA08680FD5D4F80C2542F00202C4F8D6
:101E80000C25006804F5A16400F004FF062085F825
:101E90005D0080209DE7D4F808855FEA485812D598
:101EA000D4F80C2542F00202C4F80C25006804F5B1
:101EB000A16400F0EFFEC4F800A04FF48060206041
:101EC00085F85D7038E7D4F80875BF0796D5D4F863
:101ED0000C7527F00207C4F80C7595F85D70012F9A
:101EE0000AD0032F17D0042F15D0052F16D0062F98
:101EF00017D0082F15D027E085F85C6095F83F20B3
:101F0000022A01D0032A1FD195F8512082F0010244
:101F100085F8512018E085F85CC015E085F85C90E4
:101F200012E0AE6D761CAE65032E03D9AA6585F866
:101F30005C3001E085F85CC0D4F8002522F08042D6
:101F400042F00042C4F80025C4F808C595F85C20AA
:101F5000FEF7E0FAF0E67CB504680546D4F84004E4
:101F60000190D4F8400420F02E00009001988007E2
:101F70000DD50198C00706D0A06920F00051A161DD
:101F80002846FEF7BFFA009840F002000090019842
:101F9000000732D5009840F00800009001984007F3
:101FA0001DD5A869022803D0E86801280CD00FE0ED
:101FB0000198C0F341400228286803D0012100F0B5
:101FC000CEFE05E00221FAE74EF66020C4F80404D4
:101FD0002846FEF73EFB2846FEF794FA0DE0284619
:101FE000FEF733FBD4F8400420F02E00C4F8400480
:101FF0002868816941F0005181610198800600984C
:1020000002D540F020000090C4F840047CBD0000E0
:102010002DE9F041024600680646016AC1F34343D8
:1020200001F00F07C1F30A14022B25D1002C23D095
:1020300007EB870102EBC105696C00291CD0224621
:1020400000F0ACFE686C20446864E86C2044E864EE
:1020500006EB4710D0F81015084A11420CD0D0F802
:10206000001521F0804141F00041C0F8001515F83D
:10207000500F80F001002870BDE8F0810000F81FCB
:10208000FEE7000070B515490268154B4FF040247B
:102090008A4201D11A4600E02246D568C26A961CDF
:1020A000C6621580428E521E4286428E002A14D18C
:1020B00002688A4201D1194600E02146496821F0B0
:1020C000600100D023465960418D002905D14FF0B1
:1020D000010180F84110FEF7D7FC70BD00380040C8
:1020E0000034004070B5416A144B8A1C4262056896
:1020F0000988134A4FF040249D4201D1154600E063
:102100002546E960418D491E4185418D002914D144
:102110000168994201D1114600E02146496821F049
:10212000A00100D022465160418E002905D14FF018
:10213000010180F84110FEF7A7FC70BD0038004097
:10214000003400407CB5016804468868009094F82B
:1021500041000125042834D10098C00718D04868F0
:10216000C043400614D4C9682046E26A1180E16A7F
:10217000891CE162618E491E6186618E41B90168E8
:102180004A6822F060024A6080F84150FEF780FD04
:102190000098400615D520684168C943890610D4C7
:1021A000416821F0600141602068C1688068019049
:1021B00084F84150606C40F0020060642046FEF7F5
:1021C00064FC94F84100032834D10098800719D5A5
:1021D00021684868C043000614D4626A2046128809
:1021E000CA60616A891C6162618D491E6185618D69
:1021F00041B901684A6822F0A0024A6080F8415063
:10220000FEF747FD0098000714D520684168C943D0
:1022100089060FD4416821F0A001416020688068E0
:10222000009084F84150606C40F0040060642046E7
:10223000FEF72BFC7CBD000070B5194C194D4FF416
:102240000051207C012823D000222846FEF74FF9B8
:1022500094F828004FF4805101281BD00022284612
:10226000FEF745F994F840004FF48041012813D05F
:1022700000222846FEF73BF994F858004FF400413D
:1022800001280BD000222846BDE87040FEF72FB988
:102290000122DAE70122E2E70122EAE70122F2E77E
:1022A00038000020000C02402DE9F04F87B01421C7
:1022B0006846FDF7BDFF55480024016841F0100154
:1022C0000160016801F010010591016841F004010D
:1022D0000160016801F004010591016841F080018D
:1022E0000160016801F080010591016841F0010180
:1022F0000160016801F001010591016841F00201EE
:102300000160016801F002010591016841F00801D6
:1023100001600068002200F00800059008213C4898
:10232000FEF7E5F8DFF8ECA000224FF4005150462C
:10233000FEF7DDF8012211465046FEF7D8F8DFF827
:10234000D8B04FF21009002249465846FEF7CFF8A0
:10235000742002258DE8310069462D48FDF7EAFF1B
:10236000082701260097CDE90164694628480394AF
:10237000FDF7E0FF42F201000090CDE901646946FB
:1023800050460394FDF7D6FF0097CDE901544FF076
:102390000508CDE9034869465046FDF7CBFF1F4FBE
:1023A0000096CDE9017469461D48FDF7C3FF04207E
:1023B000CDE90004DFF86CA0694650460294FDF7B1
:1023C000B9FF68020090CDE90154CDE903486946A0
:1023D0005046FDF7AFFFCDF80090CDE901646946A6
:1023E00058460394FDF7A6FF2020CDE90004694676
:1023F00058460294FDF79EFF0095CDE901746946A9
:102400000348FDF797FF07B0BDE8F08F3038024072
:102410000010024000080240000C024000001210B0
:1024200000000240000402400D4810B50B49016055
:102430000C49416000214FF480428160C0E90312E1
:1024400041618161C1610162FEF734F9002803D066
:10245000BDE81040FDF76CBF10BD00000054004007
:1024600098000020A08601000B490C4810B54A15C1
:10247000C0E9001200218160C0E90312084AC0E9E6
:102480000521C1610162FEF701FB002803D0BDE810
:102490001040FDF74DBF10BD003C0040EC00002097
:1024A000007701000F4810B50D4901604FF48271AB
:1024B000416000218160C1604FF400720161C0E998
:1024C0000512C1610162416281620A21C162FEF7A7
:1024D000BFFF002803D0BDE81040FDF729BF10BDA5
:1024E000003001403401002010B586B000241648A9
:1024F0000094019402940394049412490594016099
:102500001421C0E901146321C0E903148461FFF7B9
:102510004AF808B1FDF70CFF4FF48050009069466F
:102520000948FFF78AF808B1FDF702FF049404A9EF
:1025300005480594FFF716F8002801D0FDF7F8FECE
:1025400006B010BD000400408C0100200C4810B5FE
:102550000A4901604FF416514160002181600C224C
:10256000C160C0E904128161C161FFF7FAF9002876
:1025700003D0BDE81040FDF7DBBE10BD00440040B5
:10258000CC010020FEE770470148FDF7C5BF000001
:102590000C0200207047000000EB400210B510480C
:1025A00000EBC20450F83200A188FDF79BFF012820
:1025B0000FD000204FEA0001C4E902010146E068A3
:1025C00081F06401014303D1207C80F0010020747C
:1025D00010BDD4E90201401C41F10001ECE700000C
:1025E000380000207047FEF755BB000070B596B06C
:1025F00030216846FDF71CFE14210CA8FDF718FEDB
:1026000000251F481195129513951495016841F006
:1026100080510160006800F08050159019480168F1
:1026200041F4804101600068012600F4804015906B
:102630003004CDE9006002248001CDE90640082085
:1026400008904FF4A870CDE9090407200B90684664
:10265000FEF770FD0CA90F2081E831004FF4A05067
:102660000F90E002109005210CA8FEF77BFCC02023
:10267000CDE91204119611A8FEF7D6FB16B070BD75
:1026800040380240007000401048016841F4700179
:1026900001600F48016841F0010101600C4A00210E
:1026A0000832116002680B4B1A400260031D0A4A8F
:1026B0001A60026822F48022026005480C30016032
:1026C00002495806803908607047000088ED00E034
:1026D00000380240FFFFF6FE103000240148FFF7EB
:1026E00018B800008C010020F0B50268254C264D7A
:1026F000264E274F274B4FF0804CA04209D0604513
:1027000007D0A84205D0B04203D0B84201D09842C9
:1027100004D122F0700E4A6842EA0E02A0421BD099
:10272000604519D0A84217D0B04215D0B84213D096
:10273000984211D0184DA8420ED0184DA8420BD087
:10274000174DA84208D0174DA84205D0164DA842F3
:1027500002D0164DA84203D122F44075CA682A431C
:102760004D6922F080022A4302608A68C2620A68C8
:102770008262A04201D0984201D10969016301211E
:102780004161F0BD0000014000040040000800402D
:10279000000C0040000401400040014000440140A2
:1027A0000048014000180040001C0040002000408C
:1027B00010B5846842EA032224F47F440A4322438A
:1027C000826010BD826822F070020A4342F0070165
:1027D0008160704710B5036A046A24F00104046242
:1027E000846924F0F00444EA021423F00A020A4344
:1027F0008461026210BD10B5036A23F01003036206
:102800008369046A23F4704343EA023224F0A0038C
:1028100043EA01118261016210BD00002DE9F0411F
:10282000044600680169E26821F4405111430161E6
:102830002169A068E269084361691143226808437D
:10284000D16849F20C6399430143D1602068416922
:10285000A26921F4407111434161E2696425B2F536
:10286000004F9748974922684FF032083FD08A427C
:1028700001D082427CD1FEF71DFC00EBC00101EBD0
:10288000001061688900B0FBF1F6FEF713FC00EB65
:10289000C00101EB001061688900B0FBF1F0B0FBF2
:1028A000F5F06FF01801484306EB800108EB0110CA
:1028B000B0FBF5F000F0F006FEF7FCFB00EBC0010A
:1028C00001EB001061688900B0FBF1F0B0FBF5F09E
:1028D00006EB0016FEF7EEFB00EBC00101EB00106B
:1028E00061688900B0FBF1F7FEF7E4FBD2E08A42B1
:1028F00001D082423DD1FEF7DDFB00EBC00101EBD0
:10290000001061684900B0FBF1F0B0FBF5F0060182
:10291000FEF7D0FB00EBC00101EB0010616849003D
:10292000B0FBF1F7FEF7C6FB00EBC00101EB0010B6
:1029300061684900B0FBF1F0B0FBF5F06FF01801F1
:10294000484307EB800108EBC100B0FBF5F000F055
:10295000F80006EB4006FEF7ADFB00EBC00101EB13
:10296000001061684900B0FBF1F7FEF7A3FB3CE003
:1029700055E0FEF78FFB00EBC00101EB0010616832
:102980004900B0FBF1F0B0FBF5F00601FEF782FB69
:1029900000EBC00101EB001061684900B0FBF1F7EA
:1029A000FEF778FB00EBC00101EB00106168490005
:1029B000B0FBF1F0B0FBF5F06FF01801484307EB06
:1029C000800108EBC100B0FBF5F000F0F80006EB69
:1029D0004006FEF75FFB00EBC00101EB00106168F1
:1029E0004900B0FBF1F7FEF755FB00EBC00101EB2E
:1029F000001061684900B0FBF1F0B0FBF5F06FF03A
:102A00001801484307EB800108EBC100B0FBF5F06B
:102A100000F00700216830448860BDE8F081FEF7CF
:102A200039FB00EBC00101EB001061688900B0FBCD
:102A3000F1F6FEF72FFB00EBC00101EB001061681F
:102A40008900B0FBF1F0B0FBF5F06FF018014843DE
:102A500006EB800108EB0110B0FBF5F000F0F0068A
:102A6000FEF718FB00EBC00101EB00106168890064
:102A7000B0FBF1F0B0FBF5F006EB0016FEF70AFB39
:102A800000EBC00101EB001061688900B0FBF1F7B9
:102A9000FEF700FB00EBC00101EB0010616889004C
:102AA000B0FBF1F0B0FBF5F06FF01801484307EB15
:102AB000800108EB0110B0FBF5F000F00F00A9E772
:102AC00000140140001001402DE9F04198461746DE
:102AD0000E460446069D1DE0681C1BD02DB1FDF777
:102AE0000BFDA0EB0800A84214D92068C16821F4AE
:102AF000D071C1602068416921F00101416120204D
:102B000084F8390084F83A00002084F83800032063
:102B1000BDE8F0812068006836EA000004D000209B
:102B2000B842D9D00020F3E70120F9E70B2907D2FA
:102B300000EB8100B0F88013C1F30E01C0F88013E0
:102B40000020704701004FF0000004D0012901D09F
:102B5000022901D0022070470120704710B501788A
:102B600021B190F81F13012909D00AE0012180F852
:102B70001E13D0F8C82322B10421904701E002219E
:102B80000170002010BD10B5044600F038F821791E
:102B90002046FFF7CBFF61792046FFF7C7FF0020F3
:102BA00084F81E03D4F8C82312B1052120469047AB
:102BB000204600F01BF803202070002010BDD0F844
:102BC000BC13491CC0F8BC1301780B2905D1D0F8FF
:102BD0007813002901D0896908477047002180F8DF
:102BE0001F137047012180F81F13704710B5D0F8EC
:102BF000C403FDF736FDBDE81040FFF7A3BF10B5D5
:102C0000D0F8C403FDF743FDBDE81040FFF79ABFBD
:102C100008B5D0F8402422F02E020092D20405D448
:102C2000012909D1009941F4805103E021B90099AB
:102C300021F48051C0F84014002008BD816841F0A3
:102C40000101816000207047002110220261054AC5
:102C5000491C914201D9032070470369DB06F7D470
:102C600000207047400D03000022202343EA811119
:102C700001610549521C8A4201D90320704703694A
:102C80009B06F7D400207047400D0300406900F018
:102C90000100704700EB4111D1F800254FF47A7321
:102CA000C2F381426AB1022A0BD0D1F8002542F06A
:102CB0008042C1F80025D0F8100410F47F0F2ED008
:102CC00009E0D1F8002542F08042C1F80025C06A31
:102CD00010F47F0F07D0D1F8000540F00040C1F894
:102CE000000500207047D1F8000520F00040C1F831
:102CF0000005D1F8000540F00040C1F80005D1F80A
:102D0000000520F40040C1F80005012002E0401C4D
:102D10009842E6D8D1F80025002AF8DBE1E7D1F89F
:102D2000000520F00040C1F80005D1F8000540F092
:102D30000040C1F80005D1F8000520F40040C1F8BA
:102D40000005012002E0401C9842CAD8D1F80025B5
:102D5000002AF8DBC5E7D0F8140480B27047D0F839
:102D6000002422F00302C0F80024D0F8002401F06F
:102D700003031A43C0F80024012902D0022903D01A
:102D800006E04BF6803101E041F27071C0F80414A6
:102D9000002070474169806908407047D21C10B517
:102DA0009308002200F5805002E00468521C10C114
:102DB0009A42FAD3084610BD30B504468068002513
:102DC00020F00100A06010212046FFF74DFF2046B3
:102DD000FFF73AFF5FF0000004EB4011D1F8002547
:102DE00022F0802242F08042C1F80025401C0F28CA
:102DF000F2D900204FF47A7304EB4011D1F800258A
:102E000022F4004242F04042C1F800256D1C9D4270
:102E100003D8D1F80025002AF8DB401C0F28EBD995
:102E20004FF0FF30C4F814046061A06840F0010066
:102E3000A060002030BDFEE70907090E002804DB72
:102E400000F1E02080F80014704700F00F0000F15E
:102E5000E02080F8141D704702E008C8121F08C166
:102E6000002AFAD170477047002001E001C1121F0B
:102E7000002AFBD17047000008B5FDF713FFFFF7EC
:102E8000B5FBFFF711FAFFF7CFFAFFF7EDFAFFF7FF
:102E900009FBFFF75BFBFFF727FB1D48FEF7BCFBB9
:102EA000FDF714FAFDF728FB0646FDF725FB05465E
:102EB0004FF47A77DFF85C804FF005094FF0010A94
:102EC000FDF71AFBB04208D000242046FFF764FB50
:102ED000641CE4B2042CF8D3761CFDF70DFB401BF8
:102EE000B84212D398F80010404619B9C0F824909F
:102EF00080F800A06846FDF705FA0A230422694617
:102F00000548FEF793FD05F57A75FFF795F9D7E7C4
:102F10008C01002000000020CC01002000000000F7
:102F20000000000001020304060708090000000079
:102F300001020304542F00080000002038000000A4
:102F4000582E00088C2F0008380000209808000038
:102F5000682E0008000000000000000000000000D3
:102F60000000000000000000000000000000000061
:102F70000000000000000000000000000100000050
:0C2F800010000000000000000024F4001D
:040000050800018965
:00000001FF
