:020000040800F2
:1000000038070020290200083102000833020008E6
:10001000350200083702000839020008000000001D
:100020000000000000000000000000003B0200088B
:100030003D020008000000003F020008110F000808
:10004000430200084302000843020008430200087C
:10005000430200084302000843020008430200086C
:10006000430200084302000843020008430200085C
:10007000430200084302000843020008430200084C
:10008000210300084302000843020008430200085D
:10009000430200084302000843020008430200082C
:1000A000430200084302000843020008430200081C
:1000B000430200084302000843020008430200080C
:1000C00043020008430200084302000843020008FC
:1000D00043020008430200084302000843020008EC
:1000E00043020008430200084302000843020008DC
:1000F00043020008430200084302000843020008CC
:1001000043020008430200084302000843020008BB
:1001100043020008430200084302000843020008AB
:10012000430200084302000843020008430200089B
:10013000430200084302000843020008430200088B
:10014000430200084302000843020008430200087B
:10015000430200084302000843020008430200086B
:10016000430200084302000843020008430200085B
:100170004302000843020008430200080000000098
:10018000430200084302000800F002F800F03CF8C7
:100190000AA090E8000C82448344AAF10107DA45E2
:1001A00001D100F031F8AFF2090EBAE80F0013F0F8
:1001B000010F18BFFB1A43F001031847B8130000E2
:1001C000D8130000103A24BF78C878C1FAD8520773
:1001D00024BF30C830C144BF04680C6070470000C1
:1001E0000023002400250026103A28BF78C1FBD840
:1001F000520728BF30C148BF0B6070471FB501F0E0
:10020000A3F91FBD10B510BD00F050F81146FFF75F
:10021000F5FF01F083F900F06EF803B4FFF7F2FF89
:1002200003BC00F075F80000094880470948004702
:10023000FEE7FEE7FEE7FEE7FEE7FEE7FEE7FEE796
:10024000FEE7FEE704480549054A064B70470000F3
:100250001D0F000889010008380100203807002020
:10026000380300203803002010B5431C02E010F8CA
:10027000011B71B18107FAD14FF0013202C88C1A0B
:100280008C4314EAC211F9D0C01A0A0603D0C01E6A
:1002900010BDC01A10BD0A0401D0801E10BD090295
:1002A000FCD0401E10BD704770477047754600F087
:1002B0002BF8AE4605006946534620F007008546F8
:1002C00018B020B5FFF7BEFFBDE820404FF0000694
:1002D0004FF000074FF000084FF0000B21F007012E
:1002E000AC46ACE8C009ACE8C009ACE8C009ACE871
:1002F000C0098D46704710B50446AFF30080204614
:10030000BDE81040FFF789BF00487047D8000020C3
:1003100001491820ABBEFEE726000200704700002E
:1003200010B5024800F0CCF810BD000050000020CD
:100330000146087810381823B0FBF3F20848805CB7
:10034000C865032A05D908686FF30900001D886590
:1003500003E008686FF309008865886D7047000046
:1003600052150008014600208A6A8B69CBB932B168
:10037000012A0DD0022A03D0032A10D10EE000BFBB
:10038000CB6A03F08073B3F1807F00D1012007E0D6
:10039000CB6AB3F1C07F00D1012001E000E000BFD3
:1003A00034E08B69B3F5005F1AD132B1012A07D06E
:1003B000022A03D0032A11D10AE000BF01200EE077
:1003C000CB6A03F08073B3F1807F00D1012006E097
:1003D000CB6AB3F1C07F00D1012000E000BF15E07F
:1003E00032B1012A05D0022A04D0032A0CD103E03D
:1003F00000BF00BF012008E0CB6A03F08073B3F1B7
:10040000807F00D1012000E000BF00BF70470000E6
:1004100008B500BF002000901A48006840F40010A2
:10042000184908600846006800F40010009000BFFA
:1004300000BF1548154908604FF000604860002172
:1004400012488160C1604FF4806101610021416107
:1004500081614FF48071C16100210162416200F04D
:100460004FF900BF09480A494863084607498863AD
:1004700000BF00221146102000F083FB102000F086
:1004800070FB08BD303802408860024050000020F8
:100490001000002030B50468246824F48024056826
:1004A0002C60046863608468402C04D10468A260F6
:1004B0000468E16003E00468A1600468E26030BDA4
:1004C000F8B50446002000908C4800684FF416519F
:1004D000B0FBF1F7A56D2E6894F85C1008208840F9
:1004E000304098B12068006800F0040070B12068C6
:1004F000006820F004002168086094F85C1008206F
:100500008840A860606D40F00100606594F85C1060
:1005100001208840304068B12068406900F08000C8
:1005200040B194F85C1001208840A860606D40F0F4
:100530000200606594F85C1004208840304068B187
:100540002068006800F0020040B194F85C100420BC
:100550008840A860606D40F00400606594F85C100D
:1005600010208840304078B32068006800F0080010
:1005700050B394F85C1010208840A8602068006890
:1005800000F4802080B12068006800F4002028B9C1
:10059000206CC8B12046216C884715E0A06C98B14A
:1005A0002046A16C88470FE02068006800F4807046
:1005B00028B92068006820F0080021680860206CD5
:1005C00010B12046216C884794F85C1020208840A8
:1005D0003040002865D02068006800F01000002836
:1005E0005FD094F85C1020208840A86094F8350013
:1005F000052828D12068006820F0160021680860CE
:100600002068406920F0800021684861206C08B9AA
:10061000A06C28B12068006820F0080021680860FC
:1006200094F85C103F208840A86000BF002084F848
:10063000340000BF012084F83500206D10B1204641
:10064000216D8847F8BD2068006800F4802080B1E3
:100650002068006800F4002028B9606C10B12046C2
:10066000616C88471DE0E06BD8B12046E16B88479C
:1006700017E02068006800F4807068B9206800689E
:1006800020F010002168086000BF002084F83400CA
:1006900000BF012084F83500E06B10B12046E16B0B
:1006A0008847606D38B3606D00F00100F0B105203F
:1006B00084F835002068006820F001002168086097
:1006C00000BF0098401C0090B84200D905E02068A7
:1006D000006800F001000028F3D100BF00BF002037
:1006E00084F8340000BF012084F83500E06C10B1BC
:1006F0002046E16C884700BFA4E700000C00002002
:100700002DE9F0410446002500F0D4F9074614B95C
:100710000120BDE8F081606A00B100BF00BF002089
:1007200084F8340000BF022084F835002068006897
:1007300020F00100216808600AE000F0BBF9C01B4E
:10074000052805D920206065032084F83500E0E7FE
:100750002068006800F001000028EED120680568DC
:1007600021480540D4E901010843E16808432169B3
:10077000084361690843A1690843E1690843216AA4
:1007800008430543606A042803D1D4E90B010843F8
:100790000543206805602068456925F00705606A03
:1007A0000543606A04280DD1A06A0543E06A48B198
:1007B0002046FFF7D7FD28B140206065012084F86E
:1007C0003500A6E7206845612046FFF7B1FD0646E3
:1007D00094F85C103F208840B060002060650120E4
:1007E00084F83500002094E73F8010F02DE9F047B1
:1007F00004460D4616461F464FF00008D4F85890A0
:1008000000BF94F83400012802D10220BDE8F0872F
:10081000012084F8340000BF94F8350001282BD162
:10082000022084F83500002060653B4632462946A8
:100830002046FFF72FFE94F85C103F208840C9F84F
:1008400008002068006840F01600216808602068F1
:10085000406940F0800021684861206C28B1206820
:10086000006840F00800216808602068006840F0D7
:1008700001002168086006E000BF002084F8340011
:1008800000BF4FF002084046C0E7000070B50446C4
:1008900000F010F906462546681C10B1044800789F
:1008A000054400BF00F006F9801BA842FAD370BDD2
:1008B00008000020F8B502460B4600250024002061
:1008C0000021DCE0012606FA01F51E6806EA0504AF
:1008D000AC4273D15E68022E02D05E68122E13D134
:1008E000CF0802F1200656F827004E07F70E0F2614
:1008F000BE40B0434F07FF0E1E69BE403043CF08D5
:1009000002F1200646F8270010684F000326BE407B
:10091000B0431E7906F003064F00BE40304310601E
:100920005E68012E08D05E68022E05D05E68112E2A
:1009300002D05E68122E13D190684F000326BE408D
:10094000B0434F00DE68BE403043906050680126DF
:100950008E40B0431E79C6F300168E40304350607F
:10096000D0684F000326BE40B0434F009E68BE4093
:100970003043D0605E6806F08056B6F1805F7DD16E
:1009800000BF00260096404E366846F480463E4F33
:100990003E603E46366806F48046009600BF00BFC3
:1009A0003A4E8F0856F827008E07370F0F26BE40A5
:1009B000B043374EB24202D1002624E05EE0354E0D
:1009C000B24201D101261EE0334EB24201D10226CD
:1009D00019E0324EB24201D1032614E0304EB24249
:1009E00001D104260FE02F4EB24201D105260AE0C4
:1009F0002D4EB24201D1062605E02C4EB24201D165
:100A0000072600E008268F073F0FBE4030431F4EE9
:100A10008F0846F82700264E3068A0435E6806F42B
:100A20008036B6F5803F00D12043214E3060361D20
:100A30003068A0435E6806F40036B6F5003F00D18A
:100A400020431B4E361D3060361D3068A0435E6863
:100A500006F48016B6F5801F00D12043144E0836E8
:100A60003060361D3068A0435E6806F40016B6F5A7
:100A7000001F00D120430E4E0C363060491C102957
:100A8000FFF420AFF8BD00004438024008380140B0
:100A9000000002400004024000080240000C024036
:100AA000001002400014024000180240001C0240E6
:100AB000003C014001480068704700000000002031
:100AC00003480068034909780844014908607047F1
:100AD000000000200800002010B50D48006840F418
:100AE00000700B4908600846006840F480600860A8
:100AF0000846006840F480700860032000F080F829
:100B00000F2000F007F800F02BF8002010BD0000C7
:100B1000003C024070B504460E4800784FF47A71EC
:100B2000B1FBF0F00C490968B1FBF0F5284600F084
:100B3000B6F808B1012070BD102C07D20022214662
:100B4000501E00F01EF80548046001E00120F2E7A5
:100B50000020F0E7080000200C0000200400002026
:100B6000704701460846002809DB00F01F030122F8
:100B70009A4043099B0003F1E023C3F8002100BF22
:100B800070472DE9F05F80460D461646002700F0BD
:100B9000A9FC074639462A46334601F00700C0F152
:100BA000070ABAF1040F02D94FF0040A01E0C0F1BC
:100BB000070AD14600F1040ABAF1070F02D24FF03A
:100BC000000A01E0A0F1030AD4464FF0010A0AFA34
:100BD00009FAAAF1010A0AEA020A0AFA0CFA4FF023
:100BE000010B0BFA0CFBABF1010B0BEA030B4AEA0E
:100BF0000B042146404600F07DFCBDE8F09F00005C
:100C000000BF00F00702064B19684FF6FF031940BA
:100C1000044B0B4343EA0221014B196000BF7047AC
:100C20000CED00E00000FA05014800687047000084
:100C30000C00002000B5FFF7F7FF04490968C1F375
:100C40008221034A515CC84000BD000008380240C0
:100C50006A15000800B5FFF7E7FF04490968C1F30A
:100C60004231034A515CC84000BD000008380240D0
:100C70006A150008042808D14FF0E021096941F005
:100C800004014FF0E022116107E04FF0E021096913
:100C900021F004014FF0E02211617047704770B5F8
:100CA00004462546681EB0F1807F01D301200FE085
:100CB000681E4FF0E02148610F214FF0FF3000F037
:100CC00019FC00204FF0E021886107200861002016
:100CD00070BD10B5FFF7E2FF10BD704710B50446B8
:100CE0000CB9012010BDA06900B100E000BF94F86C
:100CF000390028B9002084F83800204600F027F891
:100D0000242084F839002068C06820F4005021684D
:100D1000C860204600F0FCF92068006920F490408B
:100D2000216808612068406920F02A002168486134
:100D30002068C06840F400502168C8600020E0636B
:100D4000202084F8390084F83A000020CAE7704770
:100D500077B581B00446154694F83A00202850D162
:100D6000029800B115B9012004B070BD00BF94F81D
:100D70003800012801D10220F6E7012084F838006C
:100D800000BF0298A062A5850020E063222084F8BD
:100D90003A001D48616BC8631C48616B08641C48BD
:100DA000616BC8640020616B086502AE326823681D
:100DB000191D2B46606BFFF719FD00BF0020009046
:100DC00020680068009020684068009000BF00BF65
:100DD00000BF002084F8380000BF2068C06840F4DD
:100DE00080702168C8602068406940F00100216877
:100DF00048612068406940F0400021684861002057
:100E0000B2E70220B0E7000089100008CF10000808
:100E10003910000870B505460548FFF725FA84B279
:100E20000A2322460249034800F007F870BD00007B
:100E3000B00000201000002070472DE9F843044660
:100E40000D4616461F464FF0000994F83900202839
:100E50005CD105B116B90120BDE8F88300BF94F854
:100E60003800012801D10220F6E7012084F838007B
:100E700000BF0020E063212084F83900FFF71AFE4C
:100E80008146A684E6842BE0E08C401EE084A068C6
:100E9000B0F5805F16D14B46002280212046009796
:100EA00000F0EAFA08B10320D6E7A846B8F8000037
:100EB000C0F3080021684860206908B9AD1C0FE044
:100EC0006D1C0DE04B46002280212046009700F06B
:100ED000D3FA08B10320BFE715F8010B2168486079
:100EE000E08C0028D0D14B460022402120460097BC
:100EF00000F0C2FA08B10320AEE7202084F83900E0
:100F000000BF002084F8380000BFA5E70220A3E757
:100F100010B5FFF7D5FDFFF7DCFE10BD14480068E3
:100F200040F47000124908601248006840F0010067
:100F30001049086000200F49083108600D4800681A
:100F40000D4908400B4908600C48091D0860081F3E
:100F5000006820F48020091F0860002005490C313A
:100F600008604FF000600249803908607047000057
:100F700088ED00E000380240FFFFF6FE103000244C
:100F800010B586B000BF002000902748006840F0F0
:100F90000100254908600846006800F00100009043
:100FA00000BF00BF00BF002000901F481030006845
:100FB00040F400301C49103108600846006800F415
:100FC0000030009000BF00BF0C2001900220029072
:100FD00001200390032004900720059001A91348E5
:100FE000FFF768FC1248134908604FF4E13048608D
:100FF0000C211048416100218160C160C161FFF78F
:101000006DFEFFF711FE4FF47A71B0FBF1F420464C
:10101000FFF745FE0420FFF72DFE00221146501E6B
:10102000FFF7AFFD06B010BD3038024000000240AF
:10103000004400401000002070B506460025B46B47
:1010400020684069C0F3C01594F83900212805D103
:1010500025B10020E084204600F050F82068406967
:10106000C0F3801594F83A00222805D125B100205C
:10107000E085204600F032F8E06B40F01000E063BD
:101080002046FFF72AFE70BD70B50546AC6B286898
:10109000006800F48070B0B90020E0852068C06866
:1010A00020F480702168C8602068406920F0010049
:1010B000216848612068406920F04000216848614B
:1010C000202084F83A002046FFF7A4FE70BD70B5DA
:1010D0000446A56B2846FFF7AFFE70BD0168C968DE
:1010E00021F490710268D1600168496921F0010121
:1010F00002685161202180F83A1070470168C96880
:1011000021F0C0010268D160202180F839107047B9
:101110002DE9F041044600252068056925F4405575
:10112000E0680543206805612068C56849F20C60E5
:1011300085432169A068084361690843E169084360
:1011400005432068C5602068456925F44075A0699D
:10115000054320684561E069B0F5004F7ED1C44980
:101160002068884203D0C349206888425DD1FFF7D8
:1011700071FD00EBC00101EB001061684900B0FB9C
:10118000F1F06421B0FBF1F00601FFF763FD00EB25
:10119000C00101EB001061684900B0FBF1F7FFF7F7
:1011A00059FD00EBC00101EB001061684900B0FB84
:1011B000F1F06421B0FBF1F000EBC00101EB001095
:1011C000A7EB8000322101EBC0006421B0FBF1F0FD
:1011D00000F0F80006EB4006FFF73CFD00EBC00115
:1011E00001EB001061684900B0FBF1F7FFF732FD39
:1011F00000EBC00101EB001061684900B0FBF1F0A9
:101200006421B0FBF1F000EBC00101EB0010A7EB93
:101210008000322101EBC0006421B0FBF1F000F04E
:10122000070030442168886020E1FFF703FD00EBF0
:10123000C00101EB001061684900B0FBF1F06421CE
:10124000B0FBF1F00601FFF7F5FC00EBC00101EB8C
:10125000001061684900B0FBF1F700E045E0FFF7DE
:10126000E9FC00EBC00101EB001061684900B0FB34
:10127000F1F06421B0FBF1F000EBC00101EB0010D4
:10128000A7EB8000322101EBC0006421B0FBF1F03C
:1012900000F0F80006EB4006FFF7CCFC00EBC001C5
:1012A00001EB001061684900B0FBF1F7FFF7C2FCE9
:1012B00000EBC00101EB001061684900B0FBF1F0E8
:1012C0006421B0FBF1F000EBC00101EB0010A7EBD3
:1012D0008000322101EBC0006421B0FBF1F000F08E
:1012E0000700304421688860C0E061492068884276
:1012F00003D06049206888425CD1FFF7ABFC00EB6B
:10130000C00101EB001061688900B0FBF1F6FFF746
:10131000A1FC00EBC00101EB001061688900B0FB8B
:10132000F1F06421B0FBF1F000EBC00101EB001023
:10133000A6EB8000322101EB00106421B0FBF1F03C
:1013400000F0F006FFF786FC00EBC00101EB001097
:1013500061688900B0FBF1F06421B0FBF1F006EBAD
:101360000016FFF777FC00EBC00101EB001061688D
:101370008900B0FBF1F7FFF76DFC00EBC00101EB5A
:10138000001061688900B0FBF1F06421B0FBF1F05E
:1013900000EBC00101EB0010A7EB8000322101EB54
:1013A00000106421B0FBF1F000F00F003044216820
:1013B00088605BE0FFF73EFC00EBC00101EB001032
:1013C00061688900B0FBF1F6FFF734FC00EBC00167
:1013D00001EB001061688900B0FBF1F06421B0FB03
:1013E000F1F000EBC00101EB0010A6EB8000322110
:1013F00001EB00106421B0FBF1F000F0F006FFF704
:1014000019FC00EBC00101EB001061688900B0FB22
:10141000F1F06421B0FBF1F006EB0016FFF70AFCD7
:1014200000EBC00101EB001061688900B0FBF1F72F
:10143000FFF700FC00EBC00101EB001061688900C0
:10144000B0FBF1F06421B0FBF1F000EBC00101EB67
:101450000010A7EB8000322101EB00106421B0FBEB
:10146000F1F000F00F00304421688860BDE8F081A1
:1014700000100140001401402DE9F04104460D46E2
:1014800017469846069E21E0701CF8B12EB1FFF772
:1014900011FBA0EB0800B04218D92068C06820F406
:1014A000D0702168C8602068406920F00100216880
:1014B0004861202084F8390084F83A0000BF0020F9
:1014C00084F8380000BF0320BDE8F0812068006880
:1014D0002840A84201D1012000E00020B842D3D02A
:1014E0000020F1E702480068C0F3022070470000C6
:1014F0000CED00E010B5002804DB0A07130E054AC6
:10150000135406E00A07140E034A00F00F031B1FD2
:10151000D45410BD00E400E018ED00E0FFF7DCFA61
:10152000FFF72EFDFEF774FF012205490548FFF77E
:101530000FFC03E04FF4FA70FFF7A8F9FAE7000098
:10154000B0000020100000204FF04070E1EE100AC3
:10155000704700061016000610160000000000007C
:101560000000010203040607080900000000010250
:101570000304000094150008000000201000000083
:10158000C4010008A415000810000020280700006E
:10159000E001000800000000100000000100000051
:0415A0000024F4002F
:0400000508000229C4
:00000001FF
